{
	"contracts/Classwork.sol": {
		"Vi": {
			"abi": [
				{
					"inputs": [],
					"name": "Allprices",
					"outputs": [
						{
							"internalType": "uint256",
							"name": "_riceP",
							"type": "uint256"
						},
						{
							"internalType": "uint256",
							"name": "_waterP",
							"type": "uint256"
						},
						{
							"internalType": "uint256",
							"name": "_burgerP",
							"type": "uint256"
						},
						{
							"internalType": "uint256",
							"name": "_shawarmaP",
							"type": "uint256"
						}
					],
					"stateMutability": "view",
					"type": "function"
				},
				{
					"inputs": [],
					"name": "IkoroduPrice",
					"outputs": [
						{
							"internalType": "uint256",
							"name": "_riceP",
							"type": "uint256"
						},
						{
							"internalType": "uint256",
							"name": "_waterP",
							"type": "uint256"
						},
						{
							"internalType": "uint256",
							"name": "_burgerP",
							"type": "uint256"
						},
						{
							"internalType": "uint256",
							"name": "_shawarmaP",
							"type": "uint256"
						}
					],
					"stateMutability": "view",
					"type": "function"
				},
				{
					"inputs": [],
					"name": "IslandPrice",
					"outputs": [
						{
							"internalType": "uint256",
							"name": "_riceP",
							"type": "uint256"
						},
						{
							"internalType": "uint256",
							"name": "_waterP",
							"type": "uint256"
						},
						{
							"internalType": "uint256",
							"name": "_burgerP",
							"type": "uint256"
						},
						{
							"internalType": "uint256",
							"name": "_shawarmaP",
							"type": "uint256"
						}
					],
					"stateMutability": "view",
					"type": "function"
				},
				{
					"inputs": [],
					"name": "burger",
					"outputs": [
						{
							"internalType": "uint256",
							"name": "",
							"type": "uint256"
						}
					],
					"stateMutability": "view",
					"type": "function"
				},
				{
					"inputs": [],
					"name": "getBasePrice",
					"outputs": [
						{
							"internalType": "uint256",
							"name": "_riceP",
							"type": "uint256"
						},
						{
							"internalType": "uint256",
							"name": "_waterP",
							"type": "uint256"
						},
						{
							"internalType": "uint256",
							"name": "_burgerP",
							"type": "uint256"
						},
						{
							"internalType": "uint256",
							"name": "_shawarmaP",
							"type": "uint256"
						}
					],
					"stateMutability": "view",
					"type": "function"
				},
				{
					"inputs": [],
					"name": "rice",
					"outputs": [
						{
							"internalType": "uint256",
							"name": "",
							"type": "uint256"
						}
					],
					"stateMutability": "view",
					"type": "function"
				},
				{
					"inputs": [],
					"name": "shawarma",
					"outputs": [
						{
							"internalType": "uint256",
							"name": "",
							"type": "uint256"
						}
					],
					"stateMutability": "view",
					"type": "function"
				},
				{
					"inputs": [],
					"name": "water",
					"outputs": [
						{
							"internalType": "uint256",
							"name": "",
							"type": "uint256"
						}
					],
					"stateMutability": "view",
					"type": "function"
				}
			],
			"devdoc": {
				"kind": "dev",
				"methods": {},
				"version": 1
			},
			"evm": {
				"assembly": "    /* \"contracts/Classwork.sol\":1411:1967  contract Vi is BaseStore, Ikorodustore, MainlandStore {... */\n  mstore(0x40, 0x80)\n    /* \"contracts/Classwork.sol\":109:112  500 */\n  0x01f4\n    /* \"contracts/Classwork.sol\":87:112  uint256 public rice = 500 */\n  0x00\n  sstore\n    /* \"contracts/Classwork.sol\":142:145  300 */\n  0x012c\n    /* \"contracts/Classwork.sol\":118:145  uint256 public  water = 300 */\n  0x01\n  sstore\n    /* \"contracts/Classwork.sol\":177:180  100 */\n  0x64\n    /* \"contracts/Classwork.sol\":152:180  uint256 public  burger = 100 */\n  0x02\n  sstore\n    /* \"contracts/Classwork.sol\":214:217  400 */\n  0x0190\n    /* \"contracts/Classwork.sol\":187:217  uint256 public  shawarma = 400 */\n  0x03\n  sstore\n    /* \"contracts/Classwork.sol\":1411:1967  contract Vi is BaseStore, Ikorodustore, MainlandStore {... */\n  callvalue\n  dup1\n  iszero\n  tag_1\n  jumpi\n  0x00\n  dup1\n  revert\ntag_1:\n  pop\n  dataSize(sub_0)\n  dup1\n  dataOffset(sub_0)\n  0x00\n  codecopy\n  0x00\n  return\nstop\n\nsub_0: assembly {\n        /* \"contracts/Classwork.sol\":1411:1967  contract Vi is BaseStore, Ikorodustore, MainlandStore {... */\n      mstore(0x40, 0x80)\n      callvalue\n      dup1\n      iszero\n      tag_1\n      jumpi\n      0x00\n      dup1\n      revert\n    tag_1:\n      pop\n      jumpi(tag_2, lt(calldatasize, 0x04))\n      shr(0xe0, calldataload(0x00))\n      dup1\n      0xb49f4afd\n      gt\n      tag_11\n      jumpi\n      dup1\n      0xb49f4afd\n      eq\n      tag_7\n      jumpi\n      dup1\n      0xda0b81ff\n      eq\n      tag_8\n      jumpi\n      dup1\n      0xe54f52cd\n      eq\n      tag_9\n      jumpi\n      dup1\n      0xffce2210\n      eq\n      tag_10\n      jumpi\n      jump(tag_2)\n    tag_11:\n      dup1\n      0x476cc324\n      eq\n      tag_3\n      jumpi\n      dup1\n      0x803c991e\n      eq\n      tag_4\n      jumpi\n      dup1\n      0x80d8d73e\n      eq\n      tag_5\n      jumpi\n      dup1\n      0xa86aec89\n      eq\n      tag_6\n      jumpi\n    tag_2:\n      0x00\n      dup1\n      revert\n        /* \"contracts/Classwork.sol\":87:112  uint256 public rice = 500 */\n    tag_3:\n      tag_12\n      tag_13\n      jump\t// in\n    tag_12:\n      mload(0x40)\n      tag_14\n      swap2\n      swap1\n      tag_15\n      jump\t// in\n    tag_14:\n      mload(0x40)\n      dup1\n      swap2\n      sub\n      swap1\n      return\n        /* \"contracts/Classwork.sol\":951:1111  function IkoroduPrice() public view returns (uint256 _riceP,  uint256 _waterP, uint256 _burgerP , uint256 _shawarmaP){... */\n    tag_4:\n      tag_16\n      tag_17\n      jump\t// in\n    tag_16:\n      mload(0x40)\n      tag_18\n      swap5\n      swap4\n      swap3\n      swap2\n      swap1\n      tag_19\n      jump\t// in\n    tag_18:\n      mload(0x40)\n      dup1\n      swap2\n      sub\n      swap1\n      return\n        /* \"contracts/Classwork.sol\":1642:1964  function Allprices() public view virtual override( BaseStore, Ikorodustore, MainlandStore ) returns(uint256 _riceP,  uint256 _waterP, uint256 _burgerP , uint256 _shawarmaP ) {... */\n    tag_5:\n      tag_20\n      tag_21\n      jump\t// in\n    tag_20:\n      mload(0x40)\n      tag_22\n      swap5\n      swap4\n      swap3\n      swap2\n      swap1\n      tag_19\n      jump\t// in\n    tag_22:\n      mload(0x40)\n      dup1\n      swap2\n      sub\n      swap1\n      return\n        /* \"contracts/Classwork.sol\":187:217  uint256 public  shawarma = 400 */\n    tag_6:\n      tag_23\n      tag_24\n      jump\t// in\n    tag_23:\n      mload(0x40)\n      tag_25\n      swap2\n      swap1\n      tag_15\n      jump\t// in\n    tag_25:\n      mload(0x40)\n      dup1\n      swap2\n      sub\n      swap1\n      return\n        /* \"contracts/Classwork.sol\":458:619  function getBasePrice() public view returns  (uint256 _riceP,  uint256 _waterP, uint256 _burgerP , uint256 _shawarmaP){... */\n    tag_7:\n      tag_26\n      tag_27\n      jump\t// in\n    tag_26:\n      mload(0x40)\n      tag_28\n      swap5\n      swap4\n      swap3\n      swap2\n      swap1\n      tag_19\n      jump\t// in\n    tag_28:\n      mload(0x40)\n      dup1\n      swap2\n      sub\n      swap1\n      return\n        /* \"contracts/Classwork.sol\":1477:1636  function IslandPrice() public view returns (uint256 _riceP,  uint256 _waterP, uint256 _burgerP , uint256 _shawarmaP){... */\n    tag_8:\n      tag_29\n      tag_30\n      jump\t// in\n    tag_29:\n      mload(0x40)\n      tag_31\n      swap5\n      swap4\n      swap3\n      swap2\n      swap1\n      tag_19\n      jump\t// in\n    tag_31:\n      mload(0x40)\n      dup1\n      swap2\n      sub\n      swap1\n      return\n        /* \"contracts/Classwork.sol\":152:180  uint256 public  burger = 100 */\n    tag_9:\n      tag_32\n      tag_33\n      jump\t// in\n    tag_32:\n      mload(0x40)\n      tag_34\n      swap2\n      swap1\n      tag_15\n      jump\t// in\n    tag_34:\n      mload(0x40)\n      dup1\n      swap2\n      sub\n      swap1\n      return\n        /* \"contracts/Classwork.sol\":118:145  uint256 public  water = 300 */\n    tag_10:\n      tag_35\n      tag_36\n      jump\t// in\n    tag_35:\n      mload(0x40)\n      tag_37\n      swap2\n      swap1\n      tag_15\n      jump\t// in\n    tag_37:\n      mload(0x40)\n      dup1\n      swap2\n      sub\n      swap1\n      return\n        /* \"contracts/Classwork.sol\":87:112  uint256 public rice = 500 */\n    tag_13:\n      sload(0x00)\n      dup2\n      jump\t// out\n        /* \"contracts/Classwork.sol\":951:1111  function IkoroduPrice() public view returns (uint256 _riceP,  uint256 _waterP, uint256 _burgerP , uint256 _shawarmaP){... */\n    tag_17:\n        /* \"contracts/Classwork.sol\":996:1010  uint256 _riceP */\n      0x00\n        /* \"contracts/Classwork.sol\":1013:1028  uint256 _waterP */\n      dup1\n        /* \"contracts/Classwork.sol\":1030:1046  uint256 _burgerP */\n      0x00\n        /* \"contracts/Classwork.sol\":1049:1067  uint256 _shawarmaP */\n      dup1\n        /* \"contracts/Classwork.sol\":1086:1103  super.Allprices() */\n      tag_39\n        /* \"contracts/Classwork.sol\":1086:1101  super.Allprices */\n      tag_40\n        /* \"contracts/Classwork.sol\":1086:1103  super.Allprices() */\n      jump\t// in\n    tag_39:\n        /* \"contracts/Classwork.sol\":1079:1103  return super.Allprices() */\n      swap4\n      pop\n      swap4\n      pop\n      swap4\n      pop\n      swap4\n      pop\n        /* \"contracts/Classwork.sol\":951:1111  function IkoroduPrice() public view returns (uint256 _riceP,  uint256 _waterP, uint256 _burgerP , uint256 _shawarmaP){... */\n      swap1\n      swap2\n      swap3\n      swap4\n      jump\t// out\n        /* \"contracts/Classwork.sol\":1642:1964  function Allprices() public view virtual override( BaseStore, Ikorodustore, MainlandStore ) returns(uint256 _riceP,  uint256 _waterP, uint256 _burgerP , uint256 _shawarmaP ) {... */\n    tag_21:\n        /* \"contracts/Classwork.sol\":1742:1756  uint256 _riceP */\n      0x00\n        /* \"contracts/Classwork.sol\":1759:1774  uint256 _waterP */\n      dup1\n        /* \"contracts/Classwork.sol\":1776:1792  uint256 _burgerP */\n      0x00\n        /* \"contracts/Classwork.sol\":1795:1813  uint256 _shawarmaP */\n      dup1\n        /* \"contracts/Classwork.sol\":1864:1866  25 */\n      0x19\n        /* \"contracts/Classwork.sol\":1857:1861  rice */\n      sload(0x00)\n        /* \"contracts/Classwork.sol\":1857:1866  rice * 25 */\n      tag_42\n      swap2\n      swap1\n      tag_43\n      jump\t// in\n    tag_42:\n        /* \"contracts/Classwork.sol\":1889:1891  25 */\n      0x19\n        /* \"contracts/Classwork.sol\":1881:1886  water */\n      sload(0x01)\n        /* \"contracts/Classwork.sol\":1881:1891  water * 25 */\n      tag_44\n      swap2\n      swap1\n      tag_43\n      jump\t// in\n    tag_44:\n        /* \"contracts/Classwork.sol\":1915:1917  25 */\n      0x19\n        /* \"contracts/Classwork.sol\":1906:1912  burger */\n      sload(0x02)\n        /* \"contracts/Classwork.sol\":1906:1917  burger * 25 */\n      tag_45\n      swap2\n      swap1\n      tag_43\n      jump\t// in\n    tag_45:\n        /* \"contracts/Classwork.sol\":1943:1945  25 */\n      0x19\n        /* \"contracts/Classwork.sol\":1932:1940  shawarma */\n      sload(0x03)\n        /* \"contracts/Classwork.sol\":1932:1945  shawarma * 25 */\n      tag_46\n      swap2\n      swap1\n      tag_43\n      jump\t// in\n    tag_46:\n        /* \"contracts/Classwork.sol\":1835:1956  return (... */\n      swap4\n      pop\n      swap4\n      pop\n      swap4\n      pop\n      swap4\n      pop\n        /* \"contracts/Classwork.sol\":1642:1964  function Allprices() public view virtual override( BaseStore, Ikorodustore, MainlandStore ) returns(uint256 _riceP,  uint256 _waterP, uint256 _burgerP , uint256 _shawarmaP ) {... */\n      swap1\n      swap2\n      swap3\n      swap4\n      jump\t// out\n        /* \"contracts/Classwork.sol\":187:217  uint256 public  shawarma = 400 */\n    tag_24:\n      sload(0x03)\n      dup2\n      jump\t// out\n        /* \"contracts/Classwork.sol\":458:619  function getBasePrice() public view returns  (uint256 _riceP,  uint256 _waterP, uint256 _burgerP , uint256 _shawarmaP){... */\n    tag_27:\n        /* \"contracts/Classwork.sol\":504:518  uint256 _riceP */\n      0x00\n        /* \"contracts/Classwork.sol\":521:536  uint256 _waterP */\n      dup1\n        /* \"contracts/Classwork.sol\":538:554  uint256 _burgerP */\n      0x00\n        /* \"contracts/Classwork.sol\":557:575  uint256 _shawarmaP */\n      dup1\n        /* \"contracts/Classwork.sol\":594:611  super.Allprices() */\n      tag_48\n        /* \"contracts/Classwork.sol\":594:609  super.Allprices */\n      tag_49\n        /* \"contracts/Classwork.sol\":594:611  super.Allprices() */\n      jump\t// in\n    tag_48:\n        /* \"contracts/Classwork.sol\":587:611  return super.Allprices() */\n      swap4\n      pop\n      swap4\n      pop\n      swap4\n      pop\n      swap4\n      pop\n        /* \"contracts/Classwork.sol\":458:619  function getBasePrice() public view returns  (uint256 _riceP,  uint256 _waterP, uint256 _burgerP , uint256 _shawarmaP){... */\n      swap1\n      swap2\n      swap3\n      swap4\n      jump\t// out\n        /* \"contracts/Classwork.sol\":1477:1636  function IslandPrice() public view returns (uint256 _riceP,  uint256 _waterP, uint256 _burgerP , uint256 _shawarmaP){... */\n    tag_30:\n        /* \"contracts/Classwork.sol\":1521:1535  uint256 _riceP */\n      0x00\n        /* \"contracts/Classwork.sol\":1538:1553  uint256 _waterP */\n      dup1\n        /* \"contracts/Classwork.sol\":1555:1571  uint256 _burgerP */\n      0x00\n        /* \"contracts/Classwork.sol\":1574:1592  uint256 _shawarmaP */\n      dup1\n        /* \"contracts/Classwork.sol\":1611:1628  super.Allprices() */\n      tag_51\n        /* \"contracts/Classwork.sol\":1611:1626  super.Allprices */\n      tag_52\n        /* \"contracts/Classwork.sol\":1611:1628  super.Allprices() */\n      jump\t// in\n    tag_51:\n        /* \"contracts/Classwork.sol\":1604:1628  return super.Allprices() */\n      swap4\n      pop\n      swap4\n      pop\n      swap4\n      pop\n      swap4\n      pop\n        /* \"contracts/Classwork.sol\":1477:1636  function IslandPrice() public view returns (uint256 _riceP,  uint256 _waterP, uint256 _burgerP , uint256 _shawarmaP){... */\n      swap1\n      swap2\n      swap3\n      swap4\n      jump\t// out\n        /* \"contracts/Classwork.sol\":152:180  uint256 public  burger = 100 */\n    tag_33:\n      sload(0x02)\n      dup2\n      jump\t// out\n        /* \"contracts/Classwork.sol\":118:145  uint256 public  water = 300 */\n    tag_36:\n      sload(0x01)\n      dup2\n      jump\t// out\n        /* \"contracts/Classwork.sol\":627:884  function Allprices() public view  virtual override returns(uint256 _riceP,  uint256 _waterP, uint256 _burgerP , uint256 _shawarmaP  ) {... */\n    tag_40:\n        /* \"contracts/Classwork.sol\":686:700  uint256 _riceP */\n      0x00\n        /* \"contracts/Classwork.sol\":703:718  uint256 _waterP */\n      dup1\n        /* \"contracts/Classwork.sol\":720:736  uint256 _burgerP */\n      0x00\n        /* \"contracts/Classwork.sol\":739:757  uint256 _shawarmaP */\n      dup1\n        /* \"contracts/Classwork.sol\":797:799  10 */\n      0x0a\n        /* \"contracts/Classwork.sol\":790:794  rice */\n      sload(0x00)\n        /* \"contracts/Classwork.sol\":790:799  rice * 10 */\n      tag_54\n      swap2\n      swap1\n      tag_43\n      jump\t// in\n    tag_54:\n        /* \"contracts/Classwork.sol\":818:820  10 */\n      0x0a\n        /* \"contracts/Classwork.sol\":810:815  water */\n      sload(0x01)\n        /* \"contracts/Classwork.sol\":810:820  water * 10 */\n      tag_55\n      swap2\n      swap1\n      tag_43\n      jump\t// in\n    tag_55:\n        /* \"contracts/Classwork.sol\":840:842  10 */\n      0x0a\n        /* \"contracts/Classwork.sol\":831:837  burger */\n      sload(0x02)\n        /* \"contracts/Classwork.sol\":831:842  burger * 10 */\n      tag_56\n      swap2\n      swap1\n      tag_43\n      jump\t// in\n    tag_56:\n        /* \"contracts/Classwork.sol\":864:866  10 */\n      0x0a\n        /* \"contracts/Classwork.sol\":853:861  shawarma */\n      sload(0x03)\n        /* \"contracts/Classwork.sol\":853:866  shawarma * 10 */\n      tag_57\n      swap2\n      swap1\n      tag_43\n      jump\t// in\n    tag_57:\n        /* \"contracts/Classwork.sol\":771:876  return  (... */\n      swap4\n      pop\n      swap4\n      pop\n      swap4\n      pop\n      swap4\n      pop\n        /* \"contracts/Classwork.sol\":627:884  function Allprices() public view  virtual override returns(uint256 _riceP,  uint256 _waterP, uint256 _burgerP , uint256 _shawarmaP  ) {... */\n      swap1\n      swap2\n      swap3\n      swap4\n      jump\t// out\n        /* \"contracts/Classwork.sol\":226:406  function Allprices() public view virtual returns(uint256 _riceP,  uint256 _waterP, uint256 _burgerP , uint256 _shawarmaP  ){... */\n    tag_49:\n        /* \"contracts/Classwork.sol\":275:289  uint256 _riceP */\n      0x00\n        /* \"contracts/Classwork.sol\":292:307  uint256 _waterP */\n      dup1\n        /* \"contracts/Classwork.sol\":309:325  uint256 _burgerP */\n      0x00\n        /* \"contracts/Classwork.sol\":328:346  uint256 _shawarmaP */\n      dup1\n        /* \"contracts/Classwork.sol\":368:372  rice */\n      sload(0x00)\n        /* \"contracts/Classwork.sol\":374:379  water */\n      sload(0x01)\n        /* \"contracts/Classwork.sol\":381:387  burger */\n      sload(0x02)\n        /* \"contracts/Classwork.sol\":389:397  shawarma */\n      sload(0x03)\n        /* \"contracts/Classwork.sol\":360:398  return (rice, water, burger, shawarma) */\n      swap4\n      pop\n      swap4\n      pop\n      swap4\n      pop\n      swap4\n      pop\n        /* \"contracts/Classwork.sol\":226:406  function Allprices() public view virtual returns(uint256 _riceP,  uint256 _waterP, uint256 _burgerP , uint256 _shawarmaP  ){... */\n      swap1\n      swap2\n      swap3\n      swap4\n      jump\t// out\n        /* \"contracts/Classwork.sol\":1120:1402  function Allprices() public view  virtual override(BaseStore, Ikorodustore) returns(uint256 _riceP,  uint256 _waterP, uint256 _burgerP , uint256 _shawarmaP  ) {... */\n    tag_52:\n        /* \"contracts/Classwork.sol\":1204:1218  uint256 _riceP */\n      0x00\n        /* \"contracts/Classwork.sol\":1221:1236  uint256 _waterP */\n      dup1\n        /* \"contracts/Classwork.sol\":1238:1254  uint256 _burgerP */\n      0x00\n        /* \"contracts/Classwork.sol\":1257:1275  uint256 _shawarmaP */\n      dup1\n        /* \"contracts/Classwork.sol\":1315:1317  15 */\n      0x0f\n        /* \"contracts/Classwork.sol\":1308:1312  rice */\n      sload(0x00)\n        /* \"contracts/Classwork.sol\":1308:1317  rice * 15 */\n      tag_60\n      swap2\n      swap1\n      tag_43\n      jump\t// in\n    tag_60:\n        /* \"contracts/Classwork.sol\":1336:1338  15 */\n      0x0f\n        /* \"contracts/Classwork.sol\":1328:1333  water */\n      sload(0x01)\n        /* \"contracts/Classwork.sol\":1328:1338  water * 15 */\n      tag_61\n      swap2\n      swap1\n      tag_43\n      jump\t// in\n    tag_61:\n        /* \"contracts/Classwork.sol\":1358:1360  15 */\n      0x0f\n        /* \"contracts/Classwork.sol\":1349:1355  burger */\n      sload(0x02)\n        /* \"contracts/Classwork.sol\":1349:1360  burger * 15 */\n      tag_62\n      swap2\n      swap1\n      tag_43\n      jump\t// in\n    tag_62:\n        /* \"contracts/Classwork.sol\":1382:1384  15 */\n      0x0f\n        /* \"contracts/Classwork.sol\":1371:1379  shawarma */\n      sload(0x03)\n        /* \"contracts/Classwork.sol\":1371:1384  shawarma * 15 */\n      tag_63\n      swap2\n      swap1\n      tag_43\n      jump\t// in\n    tag_63:\n        /* \"contracts/Classwork.sol\":1289:1394  return  (... */\n      swap4\n      pop\n      swap4\n      pop\n      swap4\n      pop\n      swap4\n      pop\n        /* \"contracts/Classwork.sol\":1120:1402  function Allprices() public view  virtual override(BaseStore, Ikorodustore) returns(uint256 _riceP,  uint256 _waterP, uint256 _burgerP , uint256 _shawarmaP  ) {... */\n      swap1\n      swap2\n      swap3\n      swap4\n      jump\t// out\n        /* \"#utility.yul\":7:84   */\n    tag_64:\n        /* \"#utility.yul\":44:51   */\n      0x00\n        /* \"#utility.yul\":73:78   */\n      dup2\n        /* \"#utility.yul\":62:78   */\n      swap1\n      pop\n        /* \"#utility.yul\":7:84   */\n      swap2\n      swap1\n      pop\n      jump\t// out\n        /* \"#utility.yul\":90:208   */\n    tag_65:\n        /* \"#utility.yul\":177:201   */\n      tag_70\n        /* \"#utility.yul\":195:200   */\n      dup2\n        /* \"#utility.yul\":177:201   */\n      tag_64\n      jump\t// in\n    tag_70:\n        /* \"#utility.yul\":172:175   */\n      dup3\n        /* \"#utility.yul\":165:202   */\n      mstore\n        /* \"#utility.yul\":90:208   */\n      pop\n      pop\n      jump\t// out\n        /* \"#utility.yul\":214:436   */\n    tag_15:\n        /* \"#utility.yul\":307:311   */\n      0x00\n        /* \"#utility.yul\":345:347   */\n      0x20\n        /* \"#utility.yul\":334:343   */\n      dup3\n        /* \"#utility.yul\":330:348   */\n      add\n        /* \"#utility.yul\":322:348   */\n      swap1\n      pop\n        /* \"#utility.yul\":358:429   */\n      tag_72\n        /* \"#utility.yul\":426:427   */\n      0x00\n        /* \"#utility.yul\":415:424   */\n      dup4\n        /* \"#utility.yul\":411:428   */\n      add\n        /* \"#utility.yul\":402:408   */\n      dup5\n        /* \"#utility.yul\":358:429   */\n      tag_65\n      jump\t// in\n    tag_72:\n        /* \"#utility.yul\":214:436   */\n      swap3\n      swap2\n      pop\n      pop\n      jump\t// out\n        /* \"#utility.yul\":442:995   */\n    tag_19:\n        /* \"#utility.yul\":619:623   */\n      0x00\n        /* \"#utility.yul\":657:660   */\n      0x80\n        /* \"#utility.yul\":646:655   */\n      dup3\n        /* \"#utility.yul\":642:661   */\n      add\n        /* \"#utility.yul\":634:661   */\n      swap1\n      pop\n        /* \"#utility.yul\":671:742   */\n      tag_74\n        /* \"#utility.yul\":739:740   */\n      0x00\n        /* \"#utility.yul\":728:737   */\n      dup4\n        /* \"#utility.yul\":724:741   */\n      add\n        /* \"#utility.yul\":715:721   */\n      dup8\n        /* \"#utility.yul\":671:742   */\n      tag_65\n      jump\t// in\n    tag_74:\n        /* \"#utility.yul\":752:824   */\n      tag_75\n        /* \"#utility.yul\":820:822   */\n      0x20\n        /* \"#utility.yul\":809:818   */\n      dup4\n        /* \"#utility.yul\":805:823   */\n      add\n        /* \"#utility.yul\":796:802   */\n      dup7\n        /* \"#utility.yul\":752:824   */\n      tag_65\n      jump\t// in\n    tag_75:\n        /* \"#utility.yul\":834:906   */\n      tag_76\n        /* \"#utility.yul\":902:904   */\n      0x40\n        /* \"#utility.yul\":891:900   */\n      dup4\n        /* \"#utility.yul\":887:905   */\n      add\n        /* \"#utility.yul\":878:884   */\n      dup6\n        /* \"#utility.yul\":834:906   */\n      tag_65\n      jump\t// in\n    tag_76:\n        /* \"#utility.yul\":916:988   */\n      tag_77\n        /* \"#utility.yul\":984:986   */\n      0x60\n        /* \"#utility.yul\":973:982   */\n      dup4\n        /* \"#utility.yul\":969:987   */\n      add\n        /* \"#utility.yul\":960:966   */\n      dup5\n        /* \"#utility.yul\":916:988   */\n      tag_65\n      jump\t// in\n    tag_77:\n        /* \"#utility.yul\":442:995   */\n      swap6\n      swap5\n      pop\n      pop\n      pop\n      pop\n      pop\n      jump\t// out\n        /* \"#utility.yul\":1001:1181   */\n    tag_66:\n        /* \"#utility.yul\":1049:1126   */\n      0x4e487b7100000000000000000000000000000000000000000000000000000000\n        /* \"#utility.yul\":1046:1047   */\n      0x00\n        /* \"#utility.yul\":1039:1127   */\n      mstore\n        /* \"#utility.yul\":1146:1150   */\n      0x11\n        /* \"#utility.yul\":1143:1144   */\n      0x04\n        /* \"#utility.yul\":1136:1151   */\n      mstore\n        /* \"#utility.yul\":1170:1174   */\n      0x24\n        /* \"#utility.yul\":1167:1168   */\n      0x00\n        /* \"#utility.yul\":1160:1175   */\n      revert\n        /* \"#utility.yul\":1187:1597   */\n    tag_43:\n        /* \"#utility.yul\":1227:1234   */\n      0x00\n        /* \"#utility.yul\":1250:1270   */\n      tag_80\n        /* \"#utility.yul\":1268:1269   */\n      dup3\n        /* \"#utility.yul\":1250:1270   */\n      tag_64\n      jump\t// in\n    tag_80:\n        /* \"#utility.yul\":1245:1270   */\n      swap2\n      pop\n        /* \"#utility.yul\":1284:1304   */\n      tag_81\n        /* \"#utility.yul\":1302:1303   */\n      dup4\n        /* \"#utility.yul\":1284:1304   */\n      tag_64\n      jump\t// in\n    tag_81:\n        /* \"#utility.yul\":1279:1304   */\n      swap3\n      pop\n        /* \"#utility.yul\":1339:1340   */\n      dup3\n        /* \"#utility.yul\":1336:1337   */\n      dup3\n        /* \"#utility.yul\":1332:1341   */\n      mul\n        /* \"#utility.yul\":1361:1391   */\n      tag_82\n        /* \"#utility.yul\":1379:1390   */\n      dup2\n        /* \"#utility.yul\":1361:1391   */\n      tag_64\n      jump\t// in\n    tag_82:\n        /* \"#utility.yul\":1350:1391   */\n      swap2\n      pop\n        /* \"#utility.yul\":1540:1541   */\n      dup3\n        /* \"#utility.yul\":1531:1538   */\n      dup3\n        /* \"#utility.yul\":1527:1542   */\n      div\n        /* \"#utility.yul\":1524:1525   */\n      dup5\n        /* \"#utility.yul\":1521:1543   */\n      eq\n        /* \"#utility.yul\":1501:1502   */\n      dup4\n        /* \"#utility.yul\":1494:1503   */\n      iszero\n        /* \"#utility.yul\":1474:1557   */\n      or\n        /* \"#utility.yul\":1451:1590   */\n      tag_83\n      jumpi\n        /* \"#utility.yul\":1570:1588   */\n      tag_84\n      tag_66\n      jump\t// in\n    tag_84:\n        /* \"#utility.yul\":1451:1590   */\n    tag_83:\n        /* \"#utility.yul\":1235:1597   */\n      pop\n        /* \"#utility.yul\":1187:1597   */\n      swap3\n      swap2\n      pop\n      pop\n      jump\t// out\n\n    auxdata: 0xa2646970667358221220a3ec9f6a5c8e34717652a1d29b3dbe5e60be29ee6efa36f16b8aaf78536312df64736f6c63430008190033\n}\n",
				"bytecode": {
					"linkReferences": {},
					"object": "60806040526101f45f5561012c60015560646002556101906003553480156024575f80fd5b50610407806100325f395ff3fe608060405234801561000f575f80fd5b5060043610610086575f3560e01c8063b49f4afd11610059578063b49f4afd14610108578063da0b81ff14610129578063e54f52cd1461014a578063ffce22101461016857610086565b8063476cc3241461008a578063803c991e146100a857806380d8d73e146100c9578063a86aec89146100ea575b5f80fd5b610092610186565b60405161009f9190610307565b60405180910390f35b6100b061018b565b6040516100c09493929190610320565b60405180910390f35b6100d16101a5565b6040516100e19493929190610320565b60405180910390f35b6100f26101f2565b6040516100ff9190610307565b60405180910390f35b6101106101f8565b6040516101209493929190610320565b60405180910390f35b610131610212565b6040516101419493929190610320565b60405180910390f35b61015261022c565b60405161015f9190610307565b60405180910390f35b610170610232565b60405161017d9190610307565b60405180910390f35b5f5481565b5f805f80610197610238565b935093509350935090919293565b5f805f8060195f546101b79190610390565b60196001546101c69190610390565b60196002546101d59190610390565b60196003546101e49190610390565b935093509350935090919293565b60035481565b5f805f80610204610285565b935093509350935090919293565b5f805f8061021e6102a2565b935093509350935090919293565b60025481565b60015481565b5f805f80600a5f5461024a9190610390565b600a6001546102599190610390565b600a6002546102689190610390565b600a6003546102779190610390565b935093509350935090919293565b5f805f805f54600154600254600354935093509350935090919293565b5f805f80600f5f546102b49190610390565b600f6001546102c39190610390565b600f6002546102d29190610390565b600f6003546102e19190610390565b935093509350935090919293565b5f819050919050565b610301816102ef565b82525050565b5f60208201905061031a5f8301846102f8565b92915050565b5f6080820190506103335f8301876102f8565b61034060208301866102f8565b61034d60408301856102f8565b61035a60608301846102f8565b95945050505050565b7f4e487b71000000000000000000000000000000000000000000000000000000005f52601160045260245ffd5b5f61039a826102ef565b91506103a5836102ef565b92508282026103b3816102ef565b915082820484148315176103ca576103c9610363565b5b509291505056fea2646970667358221220a3ec9f6a5c8e34717652a1d29b3dbe5e60be29ee6efa36f16b8aaf78536312df64736f6c63430008190033",
					"opcodes": "PUSH1 0x80 PUSH1 0x40 MSTORE PUSH2 0x1F4 PUSH0 SSTORE PUSH2 0x12C PUSH1 0x1 SSTORE PUSH1 0x64 PUSH1 0x2 SSTORE PUSH2 0x190 PUSH1 0x3 SSTORE CALLVALUE DUP1 ISZERO PUSH1 0x24 JUMPI PUSH0 DUP1 REVERT JUMPDEST POP PUSH2 0x407 DUP1 PUSH2 0x32 PUSH0 CODECOPY PUSH0 RETURN INVALID PUSH1 0x80 PUSH1 0x40 MSTORE CALLVALUE DUP1 ISZERO PUSH2 0xF JUMPI PUSH0 DUP1 REVERT JUMPDEST POP PUSH1 0x4 CALLDATASIZE LT PUSH2 0x86 JUMPI PUSH0 CALLDATALOAD PUSH1 0xE0 SHR DUP1 PUSH4 0xB49F4AFD GT PUSH2 0x59 JUMPI DUP1 PUSH4 0xB49F4AFD EQ PUSH2 0x108 JUMPI DUP1 PUSH4 0xDA0B81FF EQ PUSH2 0x129 JUMPI DUP1 PUSH4 0xE54F52CD EQ PUSH2 0x14A JUMPI DUP1 PUSH4 0xFFCE2210 EQ PUSH2 0x168 JUMPI PUSH2 0x86 JUMP JUMPDEST DUP1 PUSH4 0x476CC324 EQ PUSH2 0x8A JUMPI DUP1 PUSH4 0x803C991E EQ PUSH2 0xA8 JUMPI DUP1 PUSH4 0x80D8D73E EQ PUSH2 0xC9 JUMPI DUP1 PUSH4 0xA86AEC89 EQ PUSH2 0xEA JUMPI JUMPDEST PUSH0 DUP1 REVERT JUMPDEST PUSH2 0x92 PUSH2 0x186 JUMP JUMPDEST PUSH1 0x40 MLOAD PUSH2 0x9F SWAP2 SWAP1 PUSH2 0x307 JUMP JUMPDEST PUSH1 0x40 MLOAD DUP1 SWAP2 SUB SWAP1 RETURN JUMPDEST PUSH2 0xB0 PUSH2 0x18B JUMP JUMPDEST PUSH1 0x40 MLOAD PUSH2 0xC0 SWAP5 SWAP4 SWAP3 SWAP2 SWAP1 PUSH2 0x320 JUMP JUMPDEST PUSH1 0x40 MLOAD DUP1 SWAP2 SUB SWAP1 RETURN JUMPDEST PUSH2 0xD1 PUSH2 0x1A5 JUMP JUMPDEST PUSH1 0x40 MLOAD PUSH2 0xE1 SWAP5 SWAP4 SWAP3 SWAP2 SWAP1 PUSH2 0x320 JUMP JUMPDEST PUSH1 0x40 MLOAD DUP1 SWAP2 SUB SWAP1 RETURN JUMPDEST PUSH2 0xF2 PUSH2 0x1F2 JUMP JUMPDEST PUSH1 0x40 MLOAD PUSH2 0xFF SWAP2 SWAP1 PUSH2 0x307 JUMP JUMPDEST PUSH1 0x40 MLOAD DUP1 SWAP2 SUB SWAP1 RETURN JUMPDEST PUSH2 0x110 PUSH2 0x1F8 JUMP JUMPDEST PUSH1 0x40 MLOAD PUSH2 0x120 SWAP5 SWAP4 SWAP3 SWAP2 SWAP1 PUSH2 0x320 JUMP JUMPDEST PUSH1 0x40 MLOAD DUP1 SWAP2 SUB SWAP1 RETURN JUMPDEST PUSH2 0x131 PUSH2 0x212 JUMP JUMPDEST PUSH1 0x40 MLOAD PUSH2 0x141 SWAP5 SWAP4 SWAP3 SWAP2 SWAP1 PUSH2 0x320 JUMP JUMPDEST PUSH1 0x40 MLOAD DUP1 SWAP2 SUB SWAP1 RETURN JUMPDEST PUSH2 0x152 PUSH2 0x22C JUMP JUMPDEST PUSH1 0x40 MLOAD PUSH2 0x15F SWAP2 SWAP1 PUSH2 0x307 JUMP JUMPDEST PUSH1 0x40 MLOAD DUP1 SWAP2 SUB SWAP1 RETURN JUMPDEST PUSH2 0x170 PUSH2 0x232 JUMP JUMPDEST PUSH1 0x40 MLOAD PUSH2 0x17D SWAP2 SWAP1 PUSH2 0x307 JUMP JUMPDEST PUSH1 0x40 MLOAD DUP1 SWAP2 SUB SWAP1 RETURN JUMPDEST PUSH0 SLOAD DUP2 JUMP JUMPDEST PUSH0 DUP1 PUSH0 DUP1 PUSH2 0x197 PUSH2 0x238 JUMP JUMPDEST SWAP4 POP SWAP4 POP SWAP4 POP SWAP4 POP SWAP1 SWAP2 SWAP3 SWAP4 JUMP JUMPDEST PUSH0 DUP1 PUSH0 DUP1 PUSH1 0x19 PUSH0 SLOAD PUSH2 0x1B7 SWAP2 SWAP1 PUSH2 0x390 JUMP JUMPDEST PUSH1 0x19 PUSH1 0x1 SLOAD PUSH2 0x1C6 SWAP2 SWAP1 PUSH2 0x390 JUMP JUMPDEST PUSH1 0x19 PUSH1 0x2 SLOAD PUSH2 0x1D5 SWAP2 SWAP1 PUSH2 0x390 JUMP JUMPDEST PUSH1 0x19 PUSH1 0x3 SLOAD PUSH2 0x1E4 SWAP2 SWAP1 PUSH2 0x390 JUMP JUMPDEST SWAP4 POP SWAP4 POP SWAP4 POP SWAP4 POP SWAP1 SWAP2 SWAP3 SWAP4 JUMP JUMPDEST PUSH1 0x3 SLOAD DUP2 JUMP JUMPDEST PUSH0 DUP1 PUSH0 DUP1 PUSH2 0x204 PUSH2 0x285 JUMP JUMPDEST SWAP4 POP SWAP4 POP SWAP4 POP SWAP4 POP SWAP1 SWAP2 SWAP3 SWAP4 JUMP JUMPDEST PUSH0 DUP1 PUSH0 DUP1 PUSH2 0x21E PUSH2 0x2A2 JUMP JUMPDEST SWAP4 POP SWAP4 POP SWAP4 POP SWAP4 POP SWAP1 SWAP2 SWAP3 SWAP4 JUMP JUMPDEST PUSH1 0x2 SLOAD DUP2 JUMP JUMPDEST PUSH1 0x1 SLOAD DUP2 JUMP JUMPDEST PUSH0 DUP1 PUSH0 DUP1 PUSH1 0xA PUSH0 SLOAD PUSH2 0x24A SWAP2 SWAP1 PUSH2 0x390 JUMP JUMPDEST PUSH1 0xA PUSH1 0x1 SLOAD PUSH2 0x259 SWAP2 SWAP1 PUSH2 0x390 JUMP JUMPDEST PUSH1 0xA PUSH1 0x2 SLOAD PUSH2 0x268 SWAP2 SWAP1 PUSH2 0x390 JUMP JUMPDEST PUSH1 0xA PUSH1 0x3 SLOAD PUSH2 0x277 SWAP2 SWAP1 PUSH2 0x390 JUMP JUMPDEST SWAP4 POP SWAP4 POP SWAP4 POP SWAP4 POP SWAP1 SWAP2 SWAP3 SWAP4 JUMP JUMPDEST PUSH0 DUP1 PUSH0 DUP1 PUSH0 SLOAD PUSH1 0x1 SLOAD PUSH1 0x2 SLOAD PUSH1 0x3 SLOAD SWAP4 POP SWAP4 POP SWAP4 POP SWAP4 POP SWAP1 SWAP2 SWAP3 SWAP4 JUMP JUMPDEST PUSH0 DUP1 PUSH0 DUP1 PUSH1 0xF PUSH0 SLOAD PUSH2 0x2B4 SWAP2 SWAP1 PUSH2 0x390 JUMP JUMPDEST PUSH1 0xF PUSH1 0x1 SLOAD PUSH2 0x2C3 SWAP2 SWAP1 PUSH2 0x390 JUMP JUMPDEST PUSH1 0xF PUSH1 0x2 SLOAD PUSH2 0x2D2 SWAP2 SWAP1 PUSH2 0x390 JUMP JUMPDEST PUSH1 0xF PUSH1 0x3 SLOAD PUSH2 0x2E1 SWAP2 SWAP1 PUSH2 0x390 JUMP JUMPDEST SWAP4 POP SWAP4 POP SWAP4 POP SWAP4 POP SWAP1 SWAP2 SWAP3 SWAP4 JUMP JUMPDEST PUSH0 DUP2 SWAP1 POP SWAP2 SWAP1 POP JUMP JUMPDEST PUSH2 0x301 DUP2 PUSH2 0x2EF JUMP JUMPDEST DUP3 MSTORE POP POP JUMP JUMPDEST PUSH0 PUSH1 0x20 DUP3 ADD SWAP1 POP PUSH2 0x31A PUSH0 DUP4 ADD DUP5 PUSH2 0x2F8 JUMP JUMPDEST SWAP3 SWAP2 POP POP JUMP JUMPDEST PUSH0 PUSH1 0x80 DUP3 ADD SWAP1 POP PUSH2 0x333 PUSH0 DUP4 ADD DUP8 PUSH2 0x2F8 JUMP JUMPDEST PUSH2 0x340 PUSH1 0x20 DUP4 ADD DUP7 PUSH2 0x2F8 JUMP JUMPDEST PUSH2 0x34D PUSH1 0x40 DUP4 ADD DUP6 PUSH2 0x2F8 JUMP JUMPDEST PUSH2 0x35A PUSH1 0x60 DUP4 ADD DUP5 PUSH2 0x2F8 JUMP JUMPDEST SWAP6 SWAP5 POP POP POP POP POP JUMP JUMPDEST PUSH32 0x4E487B7100000000000000000000000000000000000000000000000000000000 PUSH0 MSTORE PUSH1 0x11 PUSH1 0x4 MSTORE PUSH1 0x24 PUSH0 REVERT JUMPDEST PUSH0 PUSH2 0x39A DUP3 PUSH2 0x2EF JUMP JUMPDEST SWAP2 POP PUSH2 0x3A5 DUP4 PUSH2 0x2EF JUMP JUMPDEST SWAP3 POP DUP3 DUP3 MUL PUSH2 0x3B3 DUP2 PUSH2 0x2EF JUMP JUMPDEST SWAP2 POP DUP3 DUP3 DIV DUP5 EQ DUP4 ISZERO OR PUSH2 0x3CA JUMPI PUSH2 0x3C9 PUSH2 0x363 JUMP JUMPDEST JUMPDEST POP SWAP3 SWAP2 POP POP JUMP INVALID LOG2 PUSH5 0x6970667358 0x22 SLT KECCAK256 LOG3 0xEC SWAP16 PUSH11 0x5C8E34717652A1D29B3DBE MCOPY PUSH1 0xBE 0x29 0xEE PUSH15 0xFA36F16B8AAF78536312DF64736F6C PUSH4 0x43000819 STOP CALLER "
				},
				"gasEstimates": {
					"creation": {
						"codeDepositCost": "206200",
						"executionCost": "88672",
						"totalCost": "294872"
					},
					"external": {
						"Allprices()": "infinite",
						"IkoroduPrice()": "infinite",
						"IslandPrice()": "infinite",
						"burger()": "2469",
						"getBasePrice()": "infinite",
						"rice()": "2425",
						"shawarma()": "2492",
						"water()": "2491"
					}
				},
				"methodIdentifiers": {
					"Allprices()": "80d8d73e",
					"IkoroduPrice()": "803c991e",
					"IslandPrice()": "da0b81ff",
					"burger()": "e54f52cd",
					"getBasePrice()": "b49f4afd",
					"rice()": "476cc324",
					"shawarma()": "a86aec89",
					"water()": "ffce2210"
				}
			},
			"storageLayout": {
				"storage": [
					{
						"astId": 4,
						"contract": "contracts/Classwork.sol:Vi",
						"label": "rice",
						"offset": 0,
						"slot": "0",
						"type": "t_uint256"
					},
					{
						"astId": 7,
						"contract": "contracts/Classwork.sol:Vi",
						"label": "water",
						"offset": 0,
						"slot": "1",
						"type": "t_uint256"
					},
					{
						"astId": 10,
						"contract": "contracts/Classwork.sol:Vi",
						"label": "burger",
						"offset": 0,
						"slot": "2",
						"type": "t_uint256"
					},
					{
						"astId": 13,
						"contract": "contracts/Classwork.sol:Vi",
						"label": "shawarma",
						"offset": 0,
						"slot": "3",
						"type": "t_uint256"
					}
				],
				"types": {
					"t_uint256": {
						"encoding": "inplace",
						"label": "uint256",
						"numberOfBytes": "32"
					}
				}
			},
			"userdoc": {
				"kind": "user",
				"methods": {},
				"version": 1
			}
		}
	}
}