{
	"contracts/Classwork.sol": {
		"BaseStore": {
			"abi": [
				{
					"inputs": [],
					"name": "Allprices",
					"outputs": [
						{
							"internalType": "uint256",
							"name": "_riceP",
							"type": "uint256"
						},
						{
							"internalType": "uint256",
							"name": "_waterP",
							"type": "uint256"
						},
						{
							"internalType": "uint256",
							"name": "_burgerP",
							"type": "uint256"
						},
						{
							"internalType": "uint256",
							"name": "_shawarmaP",
							"type": "uint256"
						}
					],
					"stateMutability": "view",
					"type": "function"
				},
				{
					"inputs": [],
					"name": "burger",
					"outputs": [
						{
							"internalType": "uint256",
							"name": "",
							"type": "uint256"
						}
					],
					"stateMutability": "view",
					"type": "function"
				},
				{
					"inputs": [],
					"name": "rice",
					"outputs": [
						{
							"internalType": "uint256",
							"name": "",
							"type": "uint256"
						}
					],
					"stateMutability": "view",
					"type": "function"
				},
				{
					"inputs": [],
					"name": "shawarma",
					"outputs": [
						{
							"internalType": "uint256",
							"name": "",
							"type": "uint256"
						}
					],
					"stateMutability": "view",
					"type": "function"
				},
				{
					"inputs": [],
					"name": "water",
					"outputs": [
						{
							"internalType": "uint256",
							"name": "",
							"type": "uint256"
						}
					],
					"stateMutability": "view",
					"type": "function"
				}
			],
			"devdoc": {
				"kind": "dev",
				"methods": {},
				"version": 1
			},
			"evm": {
				"assembly": "    /* \"contracts/Classwork.sol\":63:410  contract BaseStore {... */\n  mstore(0x40, 0x80)\n    /* \"contracts/Classwork.sol\":109:112  500 */\n  0x01f4\n    /* \"contracts/Classwork.sol\":87:112  uint256 public rice = 500 */\n  0x00\n  sstore\n    /* \"contracts/Classwork.sol\":142:145  300 */\n  0x012c\n    /* \"contracts/Classwork.sol\":118:145  uint256 public  water = 300 */\n  0x01\n  sstore\n    /* \"contracts/Classwork.sol\":177:180  100 */\n  0x64\n    /* \"contracts/Classwork.sol\":152:180  uint256 public  burger = 100 */\n  0x02\n  sstore\n    /* \"contracts/Classwork.sol\":214:217  400 */\n  0x0190\n    /* \"contracts/Classwork.sol\":187:217  uint256 public  shawarma = 400 */\n  0x03\n  sstore\n    /* \"contracts/Classwork.sol\":63:410  contract BaseStore {... */\n  callvalue\n  dup1\n  iszero\n  tag_1\n  jumpi\n  0x00\n  dup1\n  revert\ntag_1:\n  pop\n  dataSize(sub_0)\n  dup1\n  dataOffset(sub_0)\n  0x00\n  codecopy\n  0x00\n  return\nstop\n\nsub_0: assembly {\n        /* \"contracts/Classwork.sol\":63:410  contract BaseStore {... */\n      mstore(0x40, 0x80)\n      callvalue\n      dup1\n      iszero\n      tag_1\n      jumpi\n      0x00\n      dup1\n      revert\n    tag_1:\n      pop\n      jumpi(tag_2, lt(calldatasize, 0x04))\n      shr(0xe0, calldataload(0x00))\n      dup1\n      0x476cc324\n      eq\n      tag_3\n      jumpi\n      dup1\n      0x80d8d73e\n      eq\n      tag_4\n      jumpi\n      dup1\n      0xa86aec89\n      eq\n      tag_5\n      jumpi\n      dup1\n      0xe54f52cd\n      eq\n      tag_6\n      jumpi\n      dup1\n      0xffce2210\n      eq\n      tag_7\n      jumpi\n    tag_2:\n      0x00\n      dup1\n      revert\n        /* \"contracts/Classwork.sol\":87:112  uint256 public rice = 500 */\n    tag_3:\n      tag_8\n      tag_9\n      jump\t// in\n    tag_8:\n      mload(0x40)\n      tag_10\n      swap2\n      swap1\n      tag_11\n      jump\t// in\n    tag_10:\n      mload(0x40)\n      dup1\n      swap2\n      sub\n      swap1\n      return\n        /* \"contracts/Classwork.sol\":226:406  function Allprices() public view virtual returns(uint256 _riceP,  uint256 _waterP, uint256 _burgerP , uint256 _shawarmaP  ){... */\n    tag_4:\n      tag_12\n      tag_13\n      jump\t// in\n    tag_12:\n      mload(0x40)\n      tag_14\n      swap5\n      swap4\n      swap3\n      swap2\n      swap1\n      tag_15\n      jump\t// in\n    tag_14:\n      mload(0x40)\n      dup1\n      swap2\n      sub\n      swap1\n      return\n        /* \"contracts/Classwork.sol\":187:217  uint256 public  shawarma = 400 */\n    tag_5:\n      tag_16\n      tag_17\n      jump\t// in\n    tag_16:\n      mload(0x40)\n      tag_18\n      swap2\n      swap1\n      tag_11\n      jump\t// in\n    tag_18:\n      mload(0x40)\n      dup1\n      swap2\n      sub\n      swap1\n      return\n        /* \"contracts/Classwork.sol\":152:180  uint256 public  burger = 100 */\n    tag_6:\n      tag_19\n      tag_20\n      jump\t// in\n    tag_19:\n      mload(0x40)\n      tag_21\n      swap2\n      swap1\n      tag_11\n      jump\t// in\n    tag_21:\n      mload(0x40)\n      dup1\n      swap2\n      sub\n      swap1\n      return\n        /* \"contracts/Classwork.sol\":118:145  uint256 public  water = 300 */\n    tag_7:\n      tag_22\n      tag_23\n      jump\t// in\n    tag_22:\n      mload(0x40)\n      tag_24\n      swap2\n      swap1\n      tag_11\n      jump\t// in\n    tag_24:\n      mload(0x40)\n      dup1\n      swap2\n      sub\n      swap1\n      return\n        /* \"contracts/Classwork.sol\":87:112  uint256 public rice = 500 */\n    tag_9:\n      sload(0x00)\n      dup2\n      jump\t// out\n        /* \"contracts/Classwork.sol\":226:406  function Allprices() public view virtual returns(uint256 _riceP,  uint256 _waterP, uint256 _burgerP , uint256 _shawarmaP  ){... */\n    tag_13:\n        /* \"contracts/Classwork.sol\":275:289  uint256 _riceP */\n      0x00\n        /* \"contracts/Classwork.sol\":292:307  uint256 _waterP */\n      dup1\n        /* \"contracts/Classwork.sol\":309:325  uint256 _burgerP */\n      0x00\n        /* \"contracts/Classwork.sol\":328:346  uint256 _shawarmaP */\n      dup1\n        /* \"contracts/Classwork.sol\":368:372  rice */\n      sload(0x00)\n        /* \"contracts/Classwork.sol\":374:379  water */\n      sload(0x01)\n        /* \"contracts/Classwork.sol\":381:387  burger */\n      sload(0x02)\n        /* \"contracts/Classwork.sol\":389:397  shawarma */\n      sload(0x03)\n        /* \"contracts/Classwork.sol\":360:398  return (rice, water, burger, shawarma) */\n      swap4\n      pop\n      swap4\n      pop\n      swap4\n      pop\n      swap4\n      pop\n        /* \"contracts/Classwork.sol\":226:406  function Allprices() public view virtual returns(uint256 _riceP,  uint256 _waterP, uint256 _burgerP , uint256 _shawarmaP  ){... */\n      swap1\n      swap2\n      swap3\n      swap4\n      jump\t// out\n        /* \"contracts/Classwork.sol\":187:217  uint256 public  shawarma = 400 */\n    tag_17:\n      sload(0x03)\n      dup2\n      jump\t// out\n        /* \"contracts/Classwork.sol\":152:180  uint256 public  burger = 100 */\n    tag_20:\n      sload(0x02)\n      dup2\n      jump\t// out\n        /* \"contracts/Classwork.sol\":118:145  uint256 public  water = 300 */\n    tag_23:\n      sload(0x01)\n      dup2\n      jump\t// out\n        /* \"#utility.yul\":7:84   */\n    tag_26:\n        /* \"#utility.yul\":44:51   */\n      0x00\n        /* \"#utility.yul\":73:78   */\n      dup2\n        /* \"#utility.yul\":62:78   */\n      swap1\n      pop\n        /* \"#utility.yul\":7:84   */\n      swap2\n      swap1\n      pop\n      jump\t// out\n        /* \"#utility.yul\":90:208   */\n    tag_27:\n        /* \"#utility.yul\":177:201   */\n      tag_31\n        /* \"#utility.yul\":195:200   */\n      dup2\n        /* \"#utility.yul\":177:201   */\n      tag_26\n      jump\t// in\n    tag_31:\n        /* \"#utility.yul\":172:175   */\n      dup3\n        /* \"#utility.yul\":165:202   */\n      mstore\n        /* \"#utility.yul\":90:208   */\n      pop\n      pop\n      jump\t// out\n        /* \"#utility.yul\":214:436   */\n    tag_11:\n        /* \"#utility.yul\":307:311   */\n      0x00\n        /* \"#utility.yul\":345:347   */\n      0x20\n        /* \"#utility.yul\":334:343   */\n      dup3\n        /* \"#utility.yul\":330:348   */\n      add\n        /* \"#utility.yul\":322:348   */\n      swap1\n      pop\n        /* \"#utility.yul\":358:429   */\n      tag_33\n        /* \"#utility.yul\":426:427   */\n      0x00\n        /* \"#utility.yul\":415:424   */\n      dup4\n        /* \"#utility.yul\":411:428   */\n      add\n        /* \"#utility.yul\":402:408   */\n      dup5\n        /* \"#utility.yul\":358:429   */\n      tag_27\n      jump\t// in\n    tag_33:\n        /* \"#utility.yul\":214:436   */\n      swap3\n      swap2\n      pop\n      pop\n      jump\t// out\n        /* \"#utility.yul\":442:995   */\n    tag_15:\n        /* \"#utility.yul\":619:623   */\n      0x00\n        /* \"#utility.yul\":657:660   */\n      0x80\n        /* \"#utility.yul\":646:655   */\n      dup3\n        /* \"#utility.yul\":642:661   */\n      add\n        /* \"#utility.yul\":634:661   */\n      swap1\n      pop\n        /* \"#utility.yul\":671:742   */\n      tag_35\n        /* \"#utility.yul\":739:740   */\n      0x00\n        /* \"#utility.yul\":728:737   */\n      dup4\n        /* \"#utility.yul\":724:741   */\n      add\n        /* \"#utility.yul\":715:721   */\n      dup8\n        /* \"#utility.yul\":671:742   */\n      tag_27\n      jump\t// in\n    tag_35:\n        /* \"#utility.yul\":752:824   */\n      tag_36\n        /* \"#utility.yul\":820:822   */\n      0x20\n        /* \"#utility.yul\":809:818   */\n      dup4\n        /* \"#utility.yul\":805:823   */\n      add\n        /* \"#utility.yul\":796:802   */\n      dup7\n        /* \"#utility.yul\":752:824   */\n      tag_27\n      jump\t// in\n    tag_36:\n        /* \"#utility.yul\":834:906   */\n      tag_37\n        /* \"#utility.yul\":902:904   */\n      0x40\n        /* \"#utility.yul\":891:900   */\n      dup4\n        /* \"#utility.yul\":887:905   */\n      add\n        /* \"#utility.yul\":878:884   */\n      dup6\n        /* \"#utility.yul\":834:906   */\n      tag_27\n      jump\t// in\n    tag_37:\n        /* \"#utility.yul\":916:988   */\n      tag_38\n        /* \"#utility.yul\":984:986   */\n      0x60\n        /* \"#utility.yul\":973:982   */\n      dup4\n        /* \"#utility.yul\":969:987   */\n      add\n        /* \"#utility.yul\":960:966   */\n      dup5\n        /* \"#utility.yul\":916:988   */\n      tag_27\n      jump\t// in\n    tag_38:\n        /* \"#utility.yul\":442:995   */\n      swap6\n      swap5\n      pop\n      pop\n      pop\n      pop\n      pop\n      jump\t// out\n\n    auxdata: 0xa26469706673582212207700b47452f24939436b1173629eb57321421db01bd1f428780cdf77b96a342864736f6c63430008190033\n}\n",
				"bytecode": {
					"linkReferences": {},
					"object": "60806040526101f45f5561012c60015560646002556101906003553480156024575f80fd5b506101d0806100325f395ff3fe608060405234801561000f575f80fd5b5060043610610055575f3560e01c8063476cc3241461005957806380d8d73e14610077578063a86aec8914610098578063e54f52cd146100b6578063ffce2210146100d4575b5f80fd5b6100616100f2565b60405161006e919061013e565b60405180910390f35b61007f6100f7565b60405161008f9493929190610157565b60405180910390f35b6100a0610114565b6040516100ad919061013e565b60405180910390f35b6100be61011a565b6040516100cb919061013e565b60405180910390f35b6100dc610120565b6040516100e9919061013e565b60405180910390f35b5f5481565b5f805f805f54600154600254600354935093509350935090919293565b60035481565b60025481565b60015481565b5f819050919050565b61013881610126565b82525050565b5f6020820190506101515f83018461012f565b92915050565b5f60808201905061016a5f83018761012f565b610177602083018661012f565b610184604083018561012f565b610191606083018461012f565b9594505050505056fea26469706673582212207700b47452f24939436b1173629eb57321421db01bd1f428780cdf77b96a342864736f6c63430008190033",
					"opcodes": "PUSH1 0x80 PUSH1 0x40 MSTORE PUSH2 0x1F4 PUSH0 SSTORE PUSH2 0x12C PUSH1 0x1 SSTORE PUSH1 0x64 PUSH1 0x2 SSTORE PUSH2 0x190 PUSH1 0x3 SSTORE CALLVALUE DUP1 ISZERO PUSH1 0x24 JUMPI PUSH0 DUP1 REVERT JUMPDEST POP PUSH2 0x1D0 DUP1 PUSH2 0x32 PUSH0 CODECOPY PUSH0 RETURN INVALID PUSH1 0x80 PUSH1 0x40 MSTORE CALLVALUE DUP1 ISZERO PUSH2 0xF JUMPI PUSH0 DUP1 REVERT JUMPDEST POP PUSH1 0x4 CALLDATASIZE LT PUSH2 0x55 JUMPI PUSH0 CALLDATALOAD PUSH1 0xE0 SHR DUP1 PUSH4 0x476CC324 EQ PUSH2 0x59 JUMPI DUP1 PUSH4 0x80D8D73E EQ PUSH2 0x77 JUMPI DUP1 PUSH4 0xA86AEC89 EQ PUSH2 0x98 JUMPI DUP1 PUSH4 0xE54F52CD EQ PUSH2 0xB6 JUMPI DUP1 PUSH4 0xFFCE2210 EQ PUSH2 0xD4 JUMPI JUMPDEST PUSH0 DUP1 REVERT JUMPDEST PUSH2 0x61 PUSH2 0xF2 JUMP JUMPDEST PUSH1 0x40 MLOAD PUSH2 0x6E SWAP2 SWAP1 PUSH2 0x13E JUMP JUMPDEST PUSH1 0x40 MLOAD DUP1 SWAP2 SUB SWAP1 RETURN JUMPDEST PUSH2 0x7F PUSH2 0xF7 JUMP JUMPDEST PUSH1 0x40 MLOAD PUSH2 0x8F SWAP5 SWAP4 SWAP3 SWAP2 SWAP1 PUSH2 0x157 JUMP JUMPDEST PUSH1 0x40 MLOAD DUP1 SWAP2 SUB SWAP1 RETURN JUMPDEST PUSH2 0xA0 PUSH2 0x114 JUMP JUMPDEST PUSH1 0x40 MLOAD PUSH2 0xAD SWAP2 SWAP1 PUSH2 0x13E JUMP JUMPDEST PUSH1 0x40 MLOAD DUP1 SWAP2 SUB SWAP1 RETURN JUMPDEST PUSH2 0xBE PUSH2 0x11A JUMP JUMPDEST PUSH1 0x40 MLOAD PUSH2 0xCB SWAP2 SWAP1 PUSH2 0x13E JUMP JUMPDEST PUSH1 0x40 MLOAD DUP1 SWAP2 SUB SWAP1 RETURN JUMPDEST PUSH2 0xDC PUSH2 0x120 JUMP JUMPDEST PUSH1 0x40 MLOAD PUSH2 0xE9 SWAP2 SWAP1 PUSH2 0x13E JUMP JUMPDEST PUSH1 0x40 MLOAD DUP1 SWAP2 SUB SWAP1 RETURN JUMPDEST PUSH0 SLOAD DUP2 JUMP JUMPDEST PUSH0 DUP1 PUSH0 DUP1 PUSH0 SLOAD PUSH1 0x1 SLOAD PUSH1 0x2 SLOAD PUSH1 0x3 SLOAD SWAP4 POP SWAP4 POP SWAP4 POP SWAP4 POP SWAP1 SWAP2 SWAP3 SWAP4 JUMP JUMPDEST PUSH1 0x3 SLOAD DUP2 JUMP JUMPDEST PUSH1 0x2 SLOAD DUP2 JUMP JUMPDEST PUSH1 0x1 SLOAD DUP2 JUMP JUMPDEST PUSH0 DUP2 SWAP1 POP SWAP2 SWAP1 POP JUMP JUMPDEST PUSH2 0x138 DUP2 PUSH2 0x126 JUMP JUMPDEST DUP3 MSTORE POP POP JUMP JUMPDEST PUSH0 PUSH1 0x20 DUP3 ADD SWAP1 POP PUSH2 0x151 PUSH0 DUP4 ADD DUP5 PUSH2 0x12F JUMP JUMPDEST SWAP3 SWAP2 POP POP JUMP JUMPDEST PUSH0 PUSH1 0x80 DUP3 ADD SWAP1 POP PUSH2 0x16A PUSH0 DUP4 ADD DUP8 PUSH2 0x12F JUMP JUMPDEST PUSH2 0x177 PUSH1 0x20 DUP4 ADD DUP7 PUSH2 0x12F JUMP JUMPDEST PUSH2 0x184 PUSH1 0x40 DUP4 ADD DUP6 PUSH2 0x12F JUMP JUMPDEST PUSH2 0x191 PUSH1 0x60 DUP4 ADD DUP5 PUSH2 0x12F JUMP JUMPDEST SWAP6 SWAP5 POP POP POP POP POP JUMP INVALID LOG2 PUSH5 0x6970667358 0x22 SLT KECCAK256 PUSH24 0xB47452F24939436B1173629EB57321421DB01BD1F42878 0xC 0xDF PUSH24 0xB96A342864736F6C63430008190033000000000000000000 "
				},
				"gasEstimates": {
					"creation": {
						"codeDepositCost": "92800",
						"executionCost": "88562",
						"totalCost": "181362"
					},
					"external": {
						"Allprices()": "infinite",
						"burger()": "2469",
						"rice()": "2402",
						"shawarma()": "2447",
						"water()": "2491"
					}
				},
				"methodIdentifiers": {
					"Allprices()": "80d8d73e",
					"burger()": "e54f52cd",
					"rice()": "476cc324",
					"shawarma()": "a86aec89",
					"water()": "ffce2210"
				}
			},
			"storageLayout": {
				"storage": [
					{
						"astId": 4,
						"contract": "contracts/Classwork.sol:BaseStore",
						"label": "rice",
						"offset": 0,
						"slot": "0",
						"type": "t_uint256"
					},
					{
						"astId": 7,
						"contract": "contracts/Classwork.sol:BaseStore",
						"label": "water",
						"offset": 0,
						"slot": "1",
						"type": "t_uint256"
					},
					{
						"astId": 10,
						"contract": "contracts/Classwork.sol:BaseStore",
						"label": "burger",
						"offset": 0,
						"slot": "2",
						"type": "t_uint256"
					},
					{
						"astId": 13,
						"contract": "contracts/Classwork.sol:BaseStore",
						"label": "shawarma",
						"offset": 0,
						"slot": "3",
						"type": "t_uint256"
					}
				],
				"types": {
					"t_uint256": {
						"encoding": "inplace",
						"label": "uint256",
						"numberOfBytes": "32"
					}
				}
			},
			"userdoc": {
				"kind": "user",
				"methods": {},
				"version": 1
			}
		}
	}
}