{
	"data": {
		"bytecode": {
			"linkReferences": {},
			"object": "60806040526101f45f5561012c60015560646002556101906003553480156024575f80fd5b506102d1806100325f395ff3fe608060405234801561000f575f80fd5b5060043610610060575f3560e01c8063476cc3241461006457806380d8d73e14610082578063a86aec89146100a3578063b49f4afd146100c1578063e54f52cd146100e2578063ffce221014610100575b5f80fd5b61006c61011e565b60405161007991906101d1565b60405180910390f35b61008a610123565b60405161009a94939291906101ea565b60405180910390f35b6100ab610170565b6040516100b891906101d1565b60405180910390f35b6100c9610176565b6040516100d994939291906101ea565b60405180910390f35b6100ea610190565b6040516100f791906101d1565b60405180910390f35b610108610196565b60405161011591906101d1565b60405180910390f35b5f5481565b5f805f80600a5f54610135919061025a565b600a600154610144919061025a565b600a600254610153919061025a565b600a600354610162919061025a565b935093509350935090919293565b60035481565b5f805f8061018261019c565b935093509350935090919293565b60025481565b60015481565b5f805f805f54600154600254600354935093509350935090919293565b5f819050919050565b6101cb816101b9565b82525050565b5f6020820190506101e45f8301846101c2565b92915050565b5f6080820190506101fd5f8301876101c2565b61020a60208301866101c2565b61021760408301856101c2565b61022460608301846101c2565b95945050505050565b7f4e487b71000000000000000000000000000000000000000000000000000000005f52601160045260245ffd5b5f610264826101b9565b915061026f836101b9565b925082820261027d816101b9565b915082820484148315176102945761029361022d565b5b509291505056fea26469706673582212203ffa7559276dfa39567a83a462e72f925a48c84de0b0933810c4d4a21948b84264736f6c63430008190033",
			"opcodes": "PUSH1 0x80 PUSH1 0x40 MSTORE PUSH2 0x1F4 PUSH0 SSTORE PUSH2 0x12C PUSH1 0x1 SSTORE PUSH1 0x64 PUSH1 0x2 SSTORE PUSH2 0x190 PUSH1 0x3 SSTORE CALLVALUE DUP1 ISZERO PUSH1 0x24 JUMPI PUSH0 DUP1 REVERT JUMPDEST POP PUSH2 0x2D1 DUP1 PUSH2 0x32 PUSH0 CODECOPY PUSH0 RETURN INVALID PUSH1 0x80 PUSH1 0x40 MSTORE CALLVALUE DUP1 ISZERO PUSH2 0xF JUMPI PUSH0 DUP1 REVERT JUMPDEST POP PUSH1 0x4 CALLDATASIZE LT PUSH2 0x60 JUMPI PUSH0 CALLDATALOAD PUSH1 0xE0 SHR DUP1 PUSH4 0x476CC324 EQ PUSH2 0x64 JUMPI DUP1 PUSH4 0x80D8D73E EQ PUSH2 0x82 JUMPI DUP1 PUSH4 0xA86AEC89 EQ PUSH2 0xA3 JUMPI DUP1 PUSH4 0xB49F4AFD EQ PUSH2 0xC1 JUMPI DUP1 PUSH4 0xE54F52CD EQ PUSH2 0xE2 JUMPI DUP1 PUSH4 0xFFCE2210 EQ PUSH2 0x100 JUMPI JUMPDEST PUSH0 DUP1 REVERT JUMPDEST PUSH2 0x6C PUSH2 0x11E JUMP JUMPDEST PUSH1 0x40 MLOAD PUSH2 0x79 SWAP2 SWAP1 PUSH2 0x1D1 JUMP JUMPDEST PUSH1 0x40 MLOAD DUP1 SWAP2 SUB SWAP1 RETURN JUMPDEST PUSH2 0x8A PUSH2 0x123 JUMP JUMPDEST PUSH1 0x40 MLOAD PUSH2 0x9A SWAP5 SWAP4 SWAP3 SWAP2 SWAP1 PUSH2 0x1EA JUMP JUMPDEST PUSH1 0x40 MLOAD DUP1 SWAP2 SUB SWAP1 RETURN JUMPDEST PUSH2 0xAB PUSH2 0x170 JUMP JUMPDEST PUSH1 0x40 MLOAD PUSH2 0xB8 SWAP2 SWAP1 PUSH2 0x1D1 JUMP JUMPDEST PUSH1 0x40 MLOAD DUP1 SWAP2 SUB SWAP1 RETURN JUMPDEST PUSH2 0xC9 PUSH2 0x176 JUMP JUMPDEST PUSH1 0x40 MLOAD PUSH2 0xD9 SWAP5 SWAP4 SWAP3 SWAP2 SWAP1 PUSH2 0x1EA JUMP JUMPDEST PUSH1 0x40 MLOAD DUP1 SWAP2 SUB SWAP1 RETURN JUMPDEST PUSH2 0xEA PUSH2 0x190 JUMP JUMPDEST PUSH1 0x40 MLOAD PUSH2 0xF7 SWAP2 SWAP1 PUSH2 0x1D1 JUMP JUMPDEST PUSH1 0x40 MLOAD DUP1 SWAP2 SUB SWAP1 RETURN JUMPDEST PUSH2 0x108 PUSH2 0x196 JUMP JUMPDEST PUSH1 0x40 MLOAD PUSH2 0x115 SWAP2 SWAP1 PUSH2 0x1D1 JUMP JUMPDEST PUSH1 0x40 MLOAD DUP1 SWAP2 SUB SWAP1 RETURN JUMPDEST PUSH0 SLOAD DUP2 JUMP JUMPDEST PUSH0 DUP1 PUSH0 DUP1 PUSH1 0xA PUSH0 SLOAD PUSH2 0x135 SWAP2 SWAP1 PUSH2 0x25A JUMP JUMPDEST PUSH1 0xA PUSH1 0x1 SLOAD PUSH2 0x144 SWAP2 SWAP1 PUSH2 0x25A JUMP JUMPDEST PUSH1 0xA PUSH1 0x2 SLOAD PUSH2 0x153 SWAP2 SWAP1 PUSH2 0x25A JUMP JUMPDEST PUSH1 0xA PUSH1 0x3 SLOAD PUSH2 0x162 SWAP2 SWAP1 PUSH2 0x25A JUMP JUMPDEST SWAP4 POP SWAP4 POP SWAP4 POP SWAP4 POP SWAP1 SWAP2 SWAP3 SWAP4 JUMP JUMPDEST PUSH1 0x3 SLOAD DUP2 JUMP JUMPDEST PUSH0 DUP1 PUSH0 DUP1 PUSH2 0x182 PUSH2 0x19C JUMP JUMPDEST SWAP4 POP SWAP4 POP SWAP4 POP SWAP4 POP SWAP1 SWAP2 SWAP3 SWAP4 JUMP JUMPDEST PUSH1 0x2 SLOAD DUP2 JUMP JUMPDEST PUSH1 0x1 SLOAD DUP2 JUMP JUMPDEST PUSH0 DUP1 PUSH0 DUP1 PUSH0 SLOAD PUSH1 0x1 SLOAD PUSH1 0x2 SLOAD PUSH1 0x3 SLOAD SWAP4 POP SWAP4 POP SWAP4 POP SWAP4 POP SWAP1 SWAP2 SWAP3 SWAP4 JUMP JUMPDEST PUSH0 DUP2 SWAP1 POP SWAP2 SWAP1 POP JUMP JUMPDEST PUSH2 0x1CB DUP2 PUSH2 0x1B9 JUMP JUMPDEST DUP3 MSTORE POP POP JUMP JUMPDEST PUSH0 PUSH1 0x20 DUP3 ADD SWAP1 POP PUSH2 0x1E4 PUSH0 DUP4 ADD DUP5 PUSH2 0x1C2 JUMP JUMPDEST SWAP3 SWAP2 POP POP JUMP JUMPDEST PUSH0 PUSH1 0x80 DUP3 ADD SWAP1 POP PUSH2 0x1FD PUSH0 DUP4 ADD DUP8 PUSH2 0x1C2 JUMP JUMPDEST PUSH2 0x20A PUSH1 0x20 DUP4 ADD DUP7 PUSH2 0x1C2 JUMP JUMPDEST PUSH2 0x217 PUSH1 0x40 DUP4 ADD DUP6 PUSH2 0x1C2 JUMP JUMPDEST PUSH2 0x224 PUSH1 0x60 DUP4 ADD DUP5 PUSH2 0x1C2 JUMP JUMPDEST SWAP6 SWAP5 POP POP POP POP POP JUMP JUMPDEST PUSH32 0x4E487B7100000000000000000000000000000000000000000000000000000000 PUSH0 MSTORE PUSH1 0x11 PUSH1 0x4 MSTORE PUSH1 0x24 PUSH0 REVERT JUMPDEST PUSH0 PUSH2 0x264 DUP3 PUSH2 0x1B9 JUMP JUMPDEST SWAP2 POP PUSH2 0x26F DUP4 PUSH2 0x1B9 JUMP JUMPDEST SWAP3 POP DUP3 DUP3 MUL PUSH2 0x27D DUP2 PUSH2 0x1B9 JUMP JUMPDEST SWAP2 POP DUP3 DUP3 DIV DUP5 EQ DUP4 ISZERO OR PUSH2 0x294 JUMPI PUSH2 0x293 PUSH2 0x22D JUMP JUMPDEST JUMPDEST POP SWAP3 SWAP2 POP POP JUMP INVALID LOG2 PUSH5 0x6970667358 0x22 SLT KECCAK256 EXTCODEHASH STATICCALL PUSH22 0x59276DFA39567A83A462E72F925A48C84DE0B0933810 0xC4 0xD4 LOG2 NOT BASEFEE 0xB8 TIMESTAMP PUSH5 0x736F6C6343 STOP ADDMOD NOT STOP CALLER "
		},
		"gasEstimates": {
			"creation": {
				"codeDepositCost": "144200",
				"executionCost": "88611",
				"totalCost": "232811"
			},
			"external": {
				"Allprices()": "infinite",
				"burger()": "2491",
				"getBasePrice()": "infinite",
				"rice()": "2402",
				"shawarma()": "2447",
				"water()": "2513"
			}
		},
		"methodIdentifiers": {
			"Allprices()": "80d8d73e",
			"burger()": "e54f52cd",
			"getBasePrice()": "b49f4afd",
			"rice()": "476cc324",
			"shawarma()": "a86aec89",
			"water()": "ffce2210"
		}
	},
	"abi": [
		{
			"inputs": [],
			"name": "Allprices",
			"outputs": [
				{
					"internalType": "uint256",
					"name": "_riceP",
					"type": "uint256"
				},
				{
					"internalType": "uint256",
					"name": "_waterP",
					"type": "uint256"
				},
				{
					"internalType": "uint256",
					"name": "_burgerP",
					"type": "uint256"
				},
				{
					"internalType": "uint256",
					"name": "_shawarmaP",
					"type": "uint256"
				}
			],
			"stateMutability": "view",
			"type": "function"
		},
		{
			"inputs": [],
			"name": "burger",
			"outputs": [
				{
					"internalType": "uint256",
					"name": "",
					"type": "uint256"
				}
			],
			"stateMutability": "view",
			"type": "function"
		},
		{
			"inputs": [],
			"name": "getBasePrice",
			"outputs": [
				{
					"internalType": "uint256",
					"name": "_riceP",
					"type": "uint256"
				},
				{
					"internalType": "uint256",
					"name": "_waterP",
					"type": "uint256"
				},
				{
					"internalType": "uint256",
					"name": "_burgerP",
					"type": "uint256"
				},
				{
					"internalType": "uint256",
					"name": "_shawarmaP",
					"type": "uint256"
				}
			],
			"stateMutability": "view",
			"type": "function"
		},
		{
			"inputs": [],
			"name": "rice",
			"outputs": [
				{
					"internalType": "uint256",
					"name": "",
					"type": "uint256"
				}
			],
			"stateMutability": "view",
			"type": "function"
		},
		{
			"inputs": [],
			"name": "shawarma",
			"outputs": [
				{
					"internalType": "uint256",
					"name": "",
					"type": "uint256"
				}
			],
			"stateMutability": "view",
			"type": "function"
		},
		{
			"inputs": [],
			"name": "water",
			"outputs": [
				{
					"internalType": "uint256",
					"name": "",
					"type": "uint256"
				}
			],
			"stateMutability": "view",
			"type": "function"
		}
	]
}