{
	"data": {
		"bytecode": {
			"linkReferences": {},
			"object": "60806040526101f45f5561012c60015560646002556101906003553480156024575f80fd5b50610374806100325f395ff3fe608060405234801561000f575f80fd5b506004361061007b575f3560e01c8063a86aec8911610059578063a86aec89146100df578063b49f4afd146100fd578063e54f52cd1461011e578063ffce22101461013c5761007b565b8063476cc3241461007f578063803c991e1461009d57806380d8d73e146100be575b5f80fd5b61008761015a565b6040516100949190610274565b60405180910390f35b6100a561015f565b6040516100b5949392919061028d565b60405180910390f35b6100c6610179565b6040516100d6949392919061028d565b60405180910390f35b6100e76101c6565b6040516100f49190610274565b60405180910390f35b6101056101cc565b604051610115949392919061028d565b60405180910390f35b6101266101e6565b6040516101339190610274565b60405180910390f35b6101446101ec565b6040516101519190610274565b60405180910390f35b5f5481565b5f805f8061016b6101f2565b935093509350935090919293565b5f805f80600f5f5461018b91906102fd565b600f60015461019a91906102fd565b600f6002546101a991906102fd565b600f6003546101b891906102fd565b935093509350935090919293565b60035481565b5f805f806101d861023f565b935093509350935090919293565b60025481565b60015481565b5f805f80600a5f5461020491906102fd565b600a60015461021391906102fd565b600a60025461022291906102fd565b600a60035461023191906102fd565b935093509350935090919293565b5f805f805f54600154600254600354935093509350935090919293565b5f819050919050565b61026e8161025c565b82525050565b5f6020820190506102875f830184610265565b92915050565b5f6080820190506102a05f830187610265565b6102ad6020830186610265565b6102ba6040830185610265565b6102c76060830184610265565b95945050505050565b7f4e487b71000000000000000000000000000000000000000000000000000000005f52601160045260245ffd5b5f6103078261025c565b91506103128361025c565b92508282026103208161025c565b91508282048414831517610337576103366102d0565b5b509291505056fea2646970667358221220f4a645c9f2592454984b0d22b1e230a6f2e89b6c6a6ca53bb1e7a5af1a86564264736f6c63430008190033",
			"opcodes": "PUSH1 0x80 PUSH1 0x40 MSTORE PUSH2 0x1F4 PUSH0 SSTORE PUSH2 0x12C PUSH1 0x1 SSTORE PUSH1 0x64 PUSH1 0x2 SSTORE PUSH2 0x190 PUSH1 0x3 SSTORE CALLVALUE DUP1 ISZERO PUSH1 0x24 JUMPI PUSH0 DUP1 REVERT JUMPDEST POP PUSH2 0x374 DUP1 PUSH2 0x32 PUSH0 CODECOPY PUSH0 RETURN INVALID PUSH1 0x80 PUSH1 0x40 MSTORE CALLVALUE DUP1 ISZERO PUSH2 0xF JUMPI PUSH0 DUP1 REVERT JUMPDEST POP PUSH1 0x4 CALLDATASIZE LT PUSH2 0x7B JUMPI PUSH0 CALLDATALOAD PUSH1 0xE0 SHR DUP1 PUSH4 0xA86AEC89 GT PUSH2 0x59 JUMPI DUP1 PUSH4 0xA86AEC89 EQ PUSH2 0xDF JUMPI DUP1 PUSH4 0xB49F4AFD EQ PUSH2 0xFD JUMPI DUP1 PUSH4 0xE54F52CD EQ PUSH2 0x11E JUMPI DUP1 PUSH4 0xFFCE2210 EQ PUSH2 0x13C JUMPI PUSH2 0x7B JUMP JUMPDEST DUP1 PUSH4 0x476CC324 EQ PUSH2 0x7F JUMPI DUP1 PUSH4 0x803C991E EQ PUSH2 0x9D JUMPI DUP1 PUSH4 0x80D8D73E EQ PUSH2 0xBE JUMPI JUMPDEST PUSH0 DUP1 REVERT JUMPDEST PUSH2 0x87 PUSH2 0x15A JUMP JUMPDEST PUSH1 0x40 MLOAD PUSH2 0x94 SWAP2 SWAP1 PUSH2 0x274 JUMP JUMPDEST PUSH1 0x40 MLOAD DUP1 SWAP2 SUB SWAP1 RETURN JUMPDEST PUSH2 0xA5 PUSH2 0x15F JUMP JUMPDEST PUSH1 0x40 MLOAD PUSH2 0xB5 SWAP5 SWAP4 SWAP3 SWAP2 SWAP1 PUSH2 0x28D JUMP JUMPDEST PUSH1 0x40 MLOAD DUP1 SWAP2 SUB SWAP1 RETURN JUMPDEST PUSH2 0xC6 PUSH2 0x179 JUMP JUMPDEST PUSH1 0x40 MLOAD PUSH2 0xD6 SWAP5 SWAP4 SWAP3 SWAP2 SWAP1 PUSH2 0x28D JUMP JUMPDEST PUSH1 0x40 MLOAD DUP1 SWAP2 SUB SWAP1 RETURN JUMPDEST PUSH2 0xE7 PUSH2 0x1C6 JUMP JUMPDEST PUSH1 0x40 MLOAD PUSH2 0xF4 SWAP2 SWAP1 PUSH2 0x274 JUMP JUMPDEST PUSH1 0x40 MLOAD DUP1 SWAP2 SUB SWAP1 RETURN JUMPDEST PUSH2 0x105 PUSH2 0x1CC JUMP JUMPDEST PUSH1 0x40 MLOAD PUSH2 0x115 SWAP5 SWAP4 SWAP3 SWAP2 SWAP1 PUSH2 0x28D JUMP JUMPDEST PUSH1 0x40 MLOAD DUP1 SWAP2 SUB SWAP1 RETURN JUMPDEST PUSH2 0x126 PUSH2 0x1E6 JUMP JUMPDEST PUSH1 0x40 MLOAD PUSH2 0x133 SWAP2 SWAP1 PUSH2 0x274 JUMP JUMPDEST PUSH1 0x40 MLOAD DUP1 SWAP2 SUB SWAP1 RETURN JUMPDEST PUSH2 0x144 PUSH2 0x1EC JUMP JUMPDEST PUSH1 0x40 MLOAD PUSH2 0x151 SWAP2 SWAP1 PUSH2 0x274 JUMP JUMPDEST PUSH1 0x40 MLOAD DUP1 SWAP2 SUB SWAP1 RETURN JUMPDEST PUSH0 SLOAD DUP2 JUMP JUMPDEST PUSH0 DUP1 PUSH0 DUP1 PUSH2 0x16B PUSH2 0x1F2 JUMP JUMPDEST SWAP4 POP SWAP4 POP SWAP4 POP SWAP4 POP SWAP1 SWAP2 SWAP3 SWAP4 JUMP JUMPDEST PUSH0 DUP1 PUSH0 DUP1 PUSH1 0xF PUSH0 SLOAD PUSH2 0x18B SWAP2 SWAP1 PUSH2 0x2FD JUMP JUMPDEST PUSH1 0xF PUSH1 0x1 SLOAD PUSH2 0x19A SWAP2 SWAP1 PUSH2 0x2FD JUMP JUMPDEST PUSH1 0xF PUSH1 0x2 SLOAD PUSH2 0x1A9 SWAP2 SWAP1 PUSH2 0x2FD JUMP JUMPDEST PUSH1 0xF PUSH1 0x3 SLOAD PUSH2 0x1B8 SWAP2 SWAP1 PUSH2 0x2FD JUMP JUMPDEST SWAP4 POP SWAP4 POP SWAP4 POP SWAP4 POP SWAP1 SWAP2 SWAP3 SWAP4 JUMP JUMPDEST PUSH1 0x3 SLOAD DUP2 JUMP JUMPDEST PUSH0 DUP1 PUSH0 DUP1 PUSH2 0x1D8 PUSH2 0x23F JUMP JUMPDEST SWAP4 POP SWAP4 POP SWAP4 POP SWAP4 POP SWAP1 SWAP2 SWAP3 SWAP4 JUMP JUMPDEST PUSH1 0x2 SLOAD DUP2 JUMP JUMPDEST PUSH1 0x1 SLOAD DUP2 JUMP JUMPDEST PUSH0 DUP1 PUSH0 DUP1 PUSH1 0xA PUSH0 SLOAD PUSH2 0x204 SWAP2 SWAP1 PUSH2 0x2FD JUMP JUMPDEST PUSH1 0xA PUSH1 0x1 SLOAD PUSH2 0x213 SWAP2 SWAP1 PUSH2 0x2FD JUMP JUMPDEST PUSH1 0xA PUSH1 0x2 SLOAD PUSH2 0x222 SWAP2 SWAP1 PUSH2 0x2FD JUMP JUMPDEST PUSH1 0xA PUSH1 0x3 SLOAD PUSH2 0x231 SWAP2 SWAP1 PUSH2 0x2FD JUMP JUMPDEST SWAP4 POP SWAP4 POP SWAP4 POP SWAP4 POP SWAP1 SWAP2 SWAP3 SWAP4 JUMP JUMPDEST PUSH0 DUP1 PUSH0 DUP1 PUSH0 SLOAD PUSH1 0x1 SLOAD PUSH1 0x2 SLOAD PUSH1 0x3 SLOAD SWAP4 POP SWAP4 POP SWAP4 POP SWAP4 POP SWAP1 SWAP2 SWAP3 SWAP4 JUMP JUMPDEST PUSH0 DUP2 SWAP1 POP SWAP2 SWAP1 POP JUMP JUMPDEST PUSH2 0x26E DUP2 PUSH2 0x25C JUMP JUMPDEST DUP3 MSTORE POP POP JUMP JUMPDEST PUSH0 PUSH1 0x20 DUP3 ADD SWAP1 POP PUSH2 0x287 PUSH0 DUP4 ADD DUP5 PUSH2 0x265 JUMP JUMPDEST SWAP3 SWAP2 POP POP JUMP JUMPDEST PUSH0 PUSH1 0x80 DUP3 ADD SWAP1 POP PUSH2 0x2A0 PUSH0 DUP4 ADD DUP8 PUSH2 0x265 JUMP JUMPDEST PUSH2 0x2AD PUSH1 0x20 DUP4 ADD DUP7 PUSH2 0x265 JUMP JUMPDEST PUSH2 0x2BA PUSH1 0x40 DUP4 ADD DUP6 PUSH2 0x265 JUMP JUMPDEST PUSH2 0x2C7 PUSH1 0x60 DUP4 ADD DUP5 PUSH2 0x265 JUMP JUMPDEST SWAP6 SWAP5 POP POP POP POP POP JUMP JUMPDEST PUSH32 0x4E487B7100000000000000000000000000000000000000000000000000000000 PUSH0 MSTORE PUSH1 0x11 PUSH1 0x4 MSTORE PUSH1 0x24 PUSH0 REVERT JUMPDEST PUSH0 PUSH2 0x307 DUP3 PUSH2 0x25C JUMP JUMPDEST SWAP2 POP PUSH2 0x312 DUP4 PUSH2 0x25C JUMP JUMPDEST SWAP3 POP DUP3 DUP3 MUL PUSH2 0x320 DUP2 PUSH2 0x25C JUMP JUMPDEST SWAP2 POP DUP3 DUP3 DIV DUP5 EQ DUP4 ISZERO OR PUSH2 0x337 JUMPI PUSH2 0x336 PUSH2 0x2D0 JUMP JUMPDEST JUMPDEST POP SWAP3 SWAP2 POP POP JUMP INVALID LOG2 PUSH5 0x6970667358 0x22 SLT KECCAK256 DELEGATECALL 0xA6 GASLIMIT 0xC9 CALLCODE MSIZE 0x24 SLOAD SWAP9 0x4B 0xD 0x22 0xB1 0xE2 ADDRESS 0xA6 CALLCODE 0xE8 SWAP12 PUSH13 0x6A6CA53BB1E7A5AF1A86564264 PUSH20 0x6F6C634300081900330000000000000000000000 "
		},
		"gasEstimates": {
			"creation": {
				"codeDepositCost": "176800",
				"executionCost": "88641",
				"totalCost": "265441"
			},
			"external": {
				"Allprices()": "infinite",
				"IkoroduPrice()": "infinite",
				"burger()": "2469",
				"getBasePrice()": "infinite",
				"rice()": "2425",
				"shawarma()": "2425",
				"water()": "2491"
			}
		},
		"methodIdentifiers": {
			"Allprices()": "80d8d73e",
			"IkoroduPrice()": "803c991e",
			"burger()": "e54f52cd",
			"getBasePrice()": "b49f4afd",
			"rice()": "476cc324",
			"shawarma()": "a86aec89",
			"water()": "ffce2210"
		}
	},
	"abi": [
		{
			"inputs": [],
			"name": "Allprices",
			"outputs": [
				{
					"internalType": "uint256",
					"name": "_riceP",
					"type": "uint256"
				},
				{
					"internalType": "uint256",
					"name": "_waterP",
					"type": "uint256"
				},
				{
					"internalType": "uint256",
					"name": "_burgerP",
					"type": "uint256"
				},
				{
					"internalType": "uint256",
					"name": "_shawarmaP",
					"type": "uint256"
				}
			],
			"stateMutability": "view",
			"type": "function"
		},
		{
			"inputs": [],
			"name": "IkoroduPrice",
			"outputs": [
				{
					"internalType": "uint256",
					"name": "_riceP",
					"type": "uint256"
				},
				{
					"internalType": "uint256",
					"name": "_waterP",
					"type": "uint256"
				},
				{
					"internalType": "uint256",
					"name": "_burgerP",
					"type": "uint256"
				},
				{
					"internalType": "uint256",
					"name": "_shawarmaP",
					"type": "uint256"
				}
			],
			"stateMutability": "view",
			"type": "function"
		},
		{
			"inputs": [],
			"name": "burger",
			"outputs": [
				{
					"internalType": "uint256",
					"name": "",
					"type": "uint256"
				}
			],
			"stateMutability": "view",
			"type": "function"
		},
		{
			"inputs": [],
			"name": "getBasePrice",
			"outputs": [
				{
					"internalType": "uint256",
					"name": "_riceP",
					"type": "uint256"
				},
				{
					"internalType": "uint256",
					"name": "_waterP",
					"type": "uint256"
				},
				{
					"internalType": "uint256",
					"name": "_burgerP",
					"type": "uint256"
				},
				{
					"internalType": "uint256",
					"name": "_shawarmaP",
					"type": "uint256"
				}
			],
			"stateMutability": "view",
			"type": "function"
		},
		{
			"inputs": [],
			"name": "rice",
			"outputs": [
				{
					"internalType": "uint256",
					"name": "",
					"type": "uint256"
				}
			],
			"stateMutability": "view",
			"type": "function"
		},
		{
			"inputs": [],
			"name": "shawarma",
			"outputs": [
				{
					"internalType": "uint256",
					"name": "",
					"type": "uint256"
				}
			],
			"stateMutability": "view",
			"type": "function"
		},
		{
			"inputs": [],
			"name": "water",
			"outputs": [
				{
					"internalType": "uint256",
					"name": "",
					"type": "uint256"
				}
			],
			"stateMutability": "view",
			"type": "function"
		}
	]
}