{
	"data": {
		"bytecode": {
			"linkReferences": {},
			"object": "60806040526101f45f5561012c60015560646002556101906003553480156024575f80fd5b50610407806100325f395ff3fe608060405234801561000f575f80fd5b5060043610610086575f3560e01c8063b49f4afd11610059578063b49f4afd14610108578063da0b81ff14610129578063e54f52cd1461014a578063ffce22101461016857610086565b8063476cc3241461008a578063803c991e146100a857806380d8d73e146100c9578063a86aec89146100ea575b5f80fd5b610092610186565b60405161009f9190610307565b60405180910390f35b6100b061018b565b6040516100c09493929190610320565b60405180910390f35b6100d16101a5565b6040516100e19493929190610320565b60405180910390f35b6100f26101f2565b6040516100ff9190610307565b60405180910390f35b6101106101f8565b6040516101209493929190610320565b60405180910390f35b610131610212565b6040516101419493929190610320565b60405180910390f35b61015261022c565b60405161015f9190610307565b60405180910390f35b610170610232565b60405161017d9190610307565b60405180910390f35b5f5481565b5f805f80610197610238565b935093509350935090919293565b5f805f8060195f546101b79190610390565b60196001546101c69190610390565b60196002546101d59190610390565b60196003546101e49190610390565b935093509350935090919293565b60035481565b5f805f80610204610285565b935093509350935090919293565b5f805f8061021e6102a2565b935093509350935090919293565b60025481565b60015481565b5f805f80600a5f5461024a9190610390565b600a6001546102599190610390565b600a6002546102689190610390565b600a6003546102779190610390565b935093509350935090919293565b5f805f805f54600154600254600354935093509350935090919293565b5f805f80600f5f546102b49190610390565b600f6001546102c39190610390565b600f6002546102d29190610390565b600f6003546102e19190610390565b935093509350935090919293565b5f819050919050565b610301816102ef565b82525050565b5f60208201905061031a5f8301846102f8565b92915050565b5f6080820190506103335f8301876102f8565b61034060208301866102f8565b61034d60408301856102f8565b61035a60608301846102f8565b95945050505050565b7f4e487b71000000000000000000000000000000000000000000000000000000005f52601160045260245ffd5b5f61039a826102ef565b91506103a5836102ef565b92508282026103b3816102ef565b915082820484148315176103ca576103c9610363565b5b509291505056fea2646970667358221220a3ec9f6a5c8e34717652a1d29b3dbe5e60be29ee6efa36f16b8aaf78536312df64736f6c63430008190033",
			"opcodes": "PUSH1 0x80 PUSH1 0x40 MSTORE PUSH2 0x1F4 PUSH0 SSTORE PUSH2 0x12C PUSH1 0x1 SSTORE PUSH1 0x64 PUSH1 0x2 SSTORE PUSH2 0x190 PUSH1 0x3 SSTORE CALLVALUE DUP1 ISZERO PUSH1 0x24 JUMPI PUSH0 DUP1 REVERT JUMPDEST POP PUSH2 0x407 DUP1 PUSH2 0x32 PUSH0 CODECOPY PUSH0 RETURN INVALID PUSH1 0x80 PUSH1 0x40 MSTORE CALLVALUE DUP1 ISZERO PUSH2 0xF JUMPI PUSH0 DUP1 REVERT JUMPDEST POP PUSH1 0x4 CALLDATASIZE LT PUSH2 0x86 JUMPI PUSH0 CALLDATALOAD PUSH1 0xE0 SHR DUP1 PUSH4 0xB49F4AFD GT PUSH2 0x59 JUMPI DUP1 PUSH4 0xB49F4AFD EQ PUSH2 0x108 JUMPI DUP1 PUSH4 0xDA0B81FF EQ PUSH2 0x129 JUMPI DUP1 PUSH4 0xE54F52CD EQ PUSH2 0x14A JUMPI DUP1 PUSH4 0xFFCE2210 EQ PUSH2 0x168 JUMPI PUSH2 0x86 JUMP JUMPDEST DUP1 PUSH4 0x476CC324 EQ PUSH2 0x8A JUMPI DUP1 PUSH4 0x803C991E EQ PUSH2 0xA8 JUMPI DUP1 PUSH4 0x80D8D73E EQ PUSH2 0xC9 JUMPI DUP1 PUSH4 0xA86AEC89 EQ PUSH2 0xEA JUMPI JUMPDEST PUSH0 DUP1 REVERT JUMPDEST PUSH2 0x92 PUSH2 0x186 JUMP JUMPDEST PUSH1 0x40 MLOAD PUSH2 0x9F SWAP2 SWAP1 PUSH2 0x307 JUMP JUMPDEST PUSH1 0x40 MLOAD DUP1 SWAP2 SUB SWAP1 RETURN JUMPDEST PUSH2 0xB0 PUSH2 0x18B JUMP JUMPDEST PUSH1 0x40 MLOAD PUSH2 0xC0 SWAP5 SWAP4 SWAP3 SWAP2 SWAP1 PUSH2 0x320 JUMP JUMPDEST PUSH1 0x40 MLOAD DUP1 SWAP2 SUB SWAP1 RETURN JUMPDEST PUSH2 0xD1 PUSH2 0x1A5 JUMP JUMPDEST PUSH1 0x40 MLOAD PUSH2 0xE1 SWAP5 SWAP4 SWAP3 SWAP2 SWAP1 PUSH2 0x320 JUMP JUMPDEST PUSH1 0x40 MLOAD DUP1 SWAP2 SUB SWAP1 RETURN JUMPDEST PUSH2 0xF2 PUSH2 0x1F2 JUMP JUMPDEST PUSH1 0x40 MLOAD PUSH2 0xFF SWAP2 SWAP1 PUSH2 0x307 JUMP JUMPDEST PUSH1 0x40 MLOAD DUP1 SWAP2 SUB SWAP1 RETURN JUMPDEST PUSH2 0x110 PUSH2 0x1F8 JUMP JUMPDEST PUSH1 0x40 MLOAD PUSH2 0x120 SWAP5 SWAP4 SWAP3 SWAP2 SWAP1 PUSH2 0x320 JUMP JUMPDEST PUSH1 0x40 MLOAD DUP1 SWAP2 SUB SWAP1 RETURN JUMPDEST PUSH2 0x131 PUSH2 0x212 JUMP JUMPDEST PUSH1 0x40 MLOAD PUSH2 0x141 SWAP5 SWAP4 SWAP3 SWAP2 SWAP1 PUSH2 0x320 JUMP JUMPDEST PUSH1 0x40 MLOAD DUP1 SWAP2 SUB SWAP1 RETURN JUMPDEST PUSH2 0x152 PUSH2 0x22C JUMP JUMPDEST PUSH1 0x40 MLOAD PUSH2 0x15F SWAP2 SWAP1 PUSH2 0x307 JUMP JUMPDEST PUSH1 0x40 MLOAD DUP1 SWAP2 SUB SWAP1 RETURN JUMPDEST PUSH2 0x170 PUSH2 0x232 JUMP JUMPDEST PUSH1 0x40 MLOAD PUSH2 0x17D SWAP2 SWAP1 PUSH2 0x307 JUMP JUMPDEST PUSH1 0x40 MLOAD DUP1 SWAP2 SUB SWAP1 RETURN JUMPDEST PUSH0 SLOAD DUP2 JUMP JUMPDEST PUSH0 DUP1 PUSH0 DUP1 PUSH2 0x197 PUSH2 0x238 JUMP JUMPDEST SWAP4 POP SWAP4 POP SWAP4 POP SWAP4 POP SWAP1 SWAP2 SWAP3 SWAP4 JUMP JUMPDEST PUSH0 DUP1 PUSH0 DUP1 PUSH1 0x19 PUSH0 SLOAD PUSH2 0x1B7 SWAP2 SWAP1 PUSH2 0x390 JUMP JUMPDEST PUSH1 0x19 PUSH1 0x1 SLOAD PUSH2 0x1C6 SWAP2 SWAP1 PUSH2 0x390 JUMP JUMPDEST PUSH1 0x19 PUSH1 0x2 SLOAD PUSH2 0x1D5 SWAP2 SWAP1 PUSH2 0x390 JUMP JUMPDEST PUSH1 0x19 PUSH1 0x3 SLOAD PUSH2 0x1E4 SWAP2 SWAP1 PUSH2 0x390 JUMP JUMPDEST SWAP4 POP SWAP4 POP SWAP4 POP SWAP4 POP SWAP1 SWAP2 SWAP3 SWAP4 JUMP JUMPDEST PUSH1 0x3 SLOAD DUP2 JUMP JUMPDEST PUSH0 DUP1 PUSH0 DUP1 PUSH2 0x204 PUSH2 0x285 JUMP JUMPDEST SWAP4 POP SWAP4 POP SWAP4 POP SWAP4 POP SWAP1 SWAP2 SWAP3 SWAP4 JUMP JUMPDEST PUSH0 DUP1 PUSH0 DUP1 PUSH2 0x21E PUSH2 0x2A2 JUMP JUMPDEST SWAP4 POP SWAP4 POP SWAP4 POP SWAP4 POP SWAP1 SWAP2 SWAP3 SWAP4 JUMP JUMPDEST PUSH1 0x2 SLOAD DUP2 JUMP JUMPDEST PUSH1 0x1 SLOAD DUP2 JUMP JUMPDEST PUSH0 DUP1 PUSH0 DUP1 PUSH1 0xA PUSH0 SLOAD PUSH2 0x24A SWAP2 SWAP1 PUSH2 0x390 JUMP JUMPDEST PUSH1 0xA PUSH1 0x1 SLOAD PUSH2 0x259 SWAP2 SWAP1 PUSH2 0x390 JUMP JUMPDEST PUSH1 0xA PUSH1 0x2 SLOAD PUSH2 0x268 SWAP2 SWAP1 PUSH2 0x390 JUMP JUMPDEST PUSH1 0xA PUSH1 0x3 SLOAD PUSH2 0x277 SWAP2 SWAP1 PUSH2 0x390 JUMP JUMPDEST SWAP4 POP SWAP4 POP SWAP4 POP SWAP4 POP SWAP1 SWAP2 SWAP3 SWAP4 JUMP JUMPDEST PUSH0 DUP1 PUSH0 DUP1 PUSH0 SLOAD PUSH1 0x1 SLOAD PUSH1 0x2 SLOAD PUSH1 0x3 SLOAD SWAP4 POP SWAP4 POP SWAP4 POP SWAP4 POP SWAP1 SWAP2 SWAP3 SWAP4 JUMP JUMPDEST PUSH0 DUP1 PUSH0 DUP1 PUSH1 0xF PUSH0 SLOAD PUSH2 0x2B4 SWAP2 SWAP1 PUSH2 0x390 JUMP JUMPDEST PUSH1 0xF PUSH1 0x1 SLOAD PUSH2 0x2C3 SWAP2 SWAP1 PUSH2 0x390 JUMP JUMPDEST PUSH1 0xF PUSH1 0x2 SLOAD PUSH2 0x2D2 SWAP2 SWAP1 PUSH2 0x390 JUMP JUMPDEST PUSH1 0xF PUSH1 0x3 SLOAD PUSH2 0x2E1 SWAP2 SWAP1 PUSH2 0x390 JUMP JUMPDEST SWAP4 POP SWAP4 POP SWAP4 POP SWAP4 POP SWAP1 SWAP2 SWAP3 SWAP4 JUMP JUMPDEST PUSH0 DUP2 SWAP1 POP SWAP2 SWAP1 POP JUMP JUMPDEST PUSH2 0x301 DUP2 PUSH2 0x2EF JUMP JUMPDEST DUP3 MSTORE POP POP JUMP JUMPDEST PUSH0 PUSH1 0x20 DUP3 ADD SWAP1 POP PUSH2 0x31A PUSH0 DUP4 ADD DUP5 PUSH2 0x2F8 JUMP JUMPDEST SWAP3 SWAP2 POP POP JUMP JUMPDEST PUSH0 PUSH1 0x80 DUP3 ADD SWAP1 POP PUSH2 0x333 PUSH0 DUP4 ADD DUP8 PUSH2 0x2F8 JUMP JUMPDEST PUSH2 0x340 PUSH1 0x20 DUP4 ADD DUP7 PUSH2 0x2F8 JUMP JUMPDEST PUSH2 0x34D PUSH1 0x40 DUP4 ADD DUP6 PUSH2 0x2F8 JUMP JUMPDEST PUSH2 0x35A PUSH1 0x60 DUP4 ADD DUP5 PUSH2 0x2F8 JUMP JUMPDEST SWAP6 SWAP5 POP POP POP POP POP JUMP JUMPDEST PUSH32 0x4E487B7100000000000000000000000000000000000000000000000000000000 PUSH0 MSTORE PUSH1 0x11 PUSH1 0x4 MSTORE PUSH1 0x24 PUSH0 REVERT JUMPDEST PUSH0 PUSH2 0x39A DUP3 PUSH2 0x2EF JUMP JUMPDEST SWAP2 POP PUSH2 0x3A5 DUP4 PUSH2 0x2EF JUMP JUMPDEST SWAP3 POP DUP3 DUP3 MUL PUSH2 0x3B3 DUP2 PUSH2 0x2EF JUMP JUMPDEST SWAP2 POP DUP3 DUP3 DIV DUP5 EQ DUP4 ISZERO OR PUSH2 0x3CA JUMPI PUSH2 0x3C9 PUSH2 0x363 JUMP JUMPDEST JUMPDEST POP SWAP3 SWAP2 POP POP JUMP INVALID LOG2 PUSH5 0x6970667358 0x22 SLT KECCAK256 LOG3 0xEC SWAP16 PUSH11 0x5C8E34717652A1D29B3DBE MCOPY PUSH1 0xBE 0x29 0xEE PUSH15 0xFA36F16B8AAF78536312DF64736F6C PUSH4 0x43000819 STOP CALLER "
		},
		"gasEstimates": {
			"creation": {
				"codeDepositCost": "206200",
				"executionCost": "88672",
				"totalCost": "294872"
			},
			"external": {
				"Allprices()": "infinite",
				"IkoroduPrice()": "infinite",
				"IslandPrice()": "infinite",
				"burger()": "2469",
				"getBasePrice()": "infinite",
				"rice()": "2425",
				"shawarma()": "2492",
				"water()": "2491"
			}
		},
		"methodIdentifiers": {
			"Allprices()": "80d8d73e",
			"IkoroduPrice()": "803c991e",
			"IslandPrice()": "da0b81ff",
			"burger()": "e54f52cd",
			"getBasePrice()": "b49f4afd",
			"rice()": "476cc324",
			"shawarma()": "a86aec89",
			"water()": "ffce2210"
		}
	},
	"abi": [
		{
			"inputs": [],
			"name": "Allprices",
			"outputs": [
				{
					"internalType": "uint256",
					"name": "_riceP",
					"type": "uint256"
				},
				{
					"internalType": "uint256",
					"name": "_waterP",
					"type": "uint256"
				},
				{
					"internalType": "uint256",
					"name": "_burgerP",
					"type": "uint256"
				},
				{
					"internalType": "uint256",
					"name": "_shawarmaP",
					"type": "uint256"
				}
			],
			"stateMutability": "view",
			"type": "function"
		},
		{
			"inputs": [],
			"name": "IkoroduPrice",
			"outputs": [
				{
					"internalType": "uint256",
					"name": "_riceP",
					"type": "uint256"
				},
				{
					"internalType": "uint256",
					"name": "_waterP",
					"type": "uint256"
				},
				{
					"internalType": "uint256",
					"name": "_burgerP",
					"type": "uint256"
				},
				{
					"internalType": "uint256",
					"name": "_shawarmaP",
					"type": "uint256"
				}
			],
			"stateMutability": "view",
			"type": "function"
		},
		{
			"inputs": [],
			"name": "IslandPrice",
			"outputs": [
				{
					"internalType": "uint256",
					"name": "_riceP",
					"type": "uint256"
				},
				{
					"internalType": "uint256",
					"name": "_waterP",
					"type": "uint256"
				},
				{
					"internalType": "uint256",
					"name": "_burgerP",
					"type": "uint256"
				},
				{
					"internalType": "uint256",
					"name": "_shawarmaP",
					"type": "uint256"
				}
			],
			"stateMutability": "view",
			"type": "function"
		},
		{
			"inputs": [],
			"name": "burger",
			"outputs": [
				{
					"internalType": "uint256",
					"name": "",
					"type": "uint256"
				}
			],
			"stateMutability": "view",
			"type": "function"
		},
		{
			"inputs": [],
			"name": "getBasePrice",
			"outputs": [
				{
					"internalType": "uint256",
					"name": "_riceP",
					"type": "uint256"
				},
				{
					"internalType": "uint256",
					"name": "_waterP",
					"type": "uint256"
				},
				{
					"internalType": "uint256",
					"name": "_burgerP",
					"type": "uint256"
				},
				{
					"internalType": "uint256",
					"name": "_shawarmaP",
					"type": "uint256"
				}
			],
			"stateMutability": "view",
			"type": "function"
		},
		{
			"inputs": [],
			"name": "rice",
			"outputs": [
				{
					"internalType": "uint256",
					"name": "",
					"type": "uint256"
				}
			],
			"stateMutability": "view",
			"type": "function"
		},
		{
			"inputs": [],
			"name": "shawarma",
			"outputs": [
				{
					"internalType": "uint256",
					"name": "",
					"type": "uint256"
				}
			],
			"stateMutability": "view",
			"type": "function"
		},
		{
			"inputs": [],
			"name": "water",
			"outputs": [
				{
					"internalType": "uint256",
					"name": "",
					"type": "uint256"
				}
			],
			"stateMutability": "view",
			"type": "function"
		}
	]
}